:10000000101D040000000000041C0000081C00007B
:100010000C1C0000101C0000141C00000C1D000033
:100020000C1D00000C1D0000181C00001C1C000012
:10003000201C0000241C00000C1D0000281C0000D7
:100040002C1C0000301C0000341C0000381C000078
:100050003C1C0000401C0000441C0000481C000028
:100060000C1D00000C1D00004C1C0000501C00006A
:10007000541C0000581C00005C1C00000C1D0000FB
:10008000601C0000641C00000C1D0000681C0000C7
:100090006C1C0000701C0000741C0000781C000028
:1000A0007C1C0000801C0000841C0000881C0000D8
:1000B0000C1D00000C1D00000C1D00008C1C00001D
:1000C000901C0000941C0000981C00009C1C000068
:1000D000A01C0000A41C0000A81C0000AC1C000018
:1000E0000C1D00000C1D00000C1D0000B01C0000C9
:1000F000B41C00000C1D00000C1D0000B81C00000A
:10010000BC1C00000C1D00000C1D00000C1D00009C
:100110000C1D00000C1D00000C1D00000C1D00003B
:10012000C01C00000C1D00000C1D0000C41C0000C1
:10013000C81C0000CC1C00000C1D00000C1D0000A1
:100140000C1D00000C1D0000D01C00000C1D000048
:100150000C1D00000C1D00000C1D0000D41C000034
:100160000C1D00000C1D00000C1D0000D81C000020
:10017000DC1C0000E01C0000E41C0000E81C000087
:10018000EC1C0000F01C0000F41C0000F81C000037
:10019000FC1C0000001D0000041D0000081D0000E4
:1001A0000C1D00000C1D00000C1D00000C1D0000AB
:1001B0000C1D00000C1D00000C1D00000C1D00009B
:1001C0000C1D00000C1D00000C1D00000C1D00008B
:1001D0000C1D00000C1D00000C1D00000C1D00007B
:1001E0000C1D00000C1D00000C1D00000C1D00006B
:1001F0000C1D00000C1D00000C1D00000C1D00005B
:10380000101D0400000000005E2004000000000005
:103810005E200400000000003220040000000000D0
:1038200038200400000000005E20040000000000BA
:103830005E200400000000005E2004000000000084
:103840005E200400000000000420040000000000CE
:103850005E200400000000005E2004000000000064
:103860005E20040000000000CC1E040000000000E8
:103870005E200400000000005E2004000000000044
:103880005E200400000000005E2004000000000034
:10389000621E040000000000281E0400000000005A
:1038A000AE1E0400000000003E20040000000000E6
:1038B000E41D0400000000005E2004000000000081
:1038C0005E200400000000005E20040000000000F4
:1038D0005E200400000000005E20040000000000E4
:1038E0005E200400000000005E20040000000000D4
:1038F0005E200400000000005E20040000000000C4
:103900005E200400000000005E20040000000000B3
:103910005E200400000000005E20040000000000A3
:103920005E200400000000005E2004000000000093
:103930005E200400000000005E2004000000000083
:103940005E200400000000005E2004000000000073
:103950005E200400000000005E2004000000000063
:103960005E200400000000005E2004000000000053
:103970005E200400000000005E2004000000000043
:103980005E200400000000005E2004000000000033
:103990005E200400000000005E2004000000000023
:1039A0005E200400000000005E2004000000000013
:1039B0005E200400000000005E2004000000000003
:1039C0005E200400000000005E20040000000000F3
:1039D0005E20040000000000EC1E04000000000057
:1039E0005E200400000000005E20040000000000D3
:1039F0005E200400000000005E20040000000000C3
:103A00005E200400000000005E20040000000000B2
:103A10005E200400000000005E20040000000000A2
:103A20000F1E24000EFF27000E018800000000007A
:103A30000C00070040E62A00010020000F000700EC
:103A4000000020000000E000020032000000020040
:103A500000000000C60C0200010000000040DA0077
:103A60000000FE00608D22000000E0000200320035
:103A7000002020009001880000000600A1028800BC
:103A8000800078000000EB001A003700E280400060
:103A900054A0B4009101BA00E280400054A0B400E8
:103AA0009102BA00E280400054A0B4000002EB0092
:103AB000472BDE00F507B200A6018800602CE1006C
:103AC00008003A000049EB000201E800020039005A
:103AD0003420EC0002F0A0008301E900F9FF3E0071
:103AE000040037006128E100010032000082EB0091
:103AF000040007001101BA000200E000E3FF3A00F1
:103B00000000060004D0A300E20F49001C003900A9
:103B1000810278003549BA000201E800020039004C
:103B20003420EC0002F0A0008301E9000F00320015
:103B30002549BA000201E800020039003420EC00F7
:103B400002F0A0008301E900080032000400E00058
:103B50000600320015C9BA000201E800020039006F
:103B60003420EC0002F0A0008301E9008180E8002D
:103B700054A0B4000300E000E2FF3A000000060099
:103B80009102BA00055978008301E900F7FF32007D
:103B9000C82ADE00055978008301E900F3FF3200EE
:103BA0000400E000F1FF320011D9BA00EEFF370047
:103BB0007EB3040000000000C22C040001000000DD
:103BC000BE20040001000000809FBE00829FBE0056
:103BD0008660A90030088000410880004C09DD00A3
:103BE0004400DE0000007100C408DE0000F0A10007
:103BF00031618000F2FF200002816000CC08DE000D
:103C0000130020008118DD00928060000200320065
:103C100001002800010070004171800064814000B3
:103C20000201410003C22000803179008100E800D8
:103C300041718800F0CB800001CC800010887000BA
:103C40008600A8004F01BE004F00BE0000400600E5
:103C50003600F800809FBE00829FBE00849FBE0099
:103C6000869FBE00889FBE008600A900E0C7800036
:103C7000E00F50000C003200190020000000CF00BF
:103C80000004E90008004400C18D210061007800B3
:103C9000000001000848DD000080EA00FC18B600C2
:103CA000E0C78800F5FF3A004F04BE004F03BE0096
:103CB0004F02BE004F01BE004F00BE003600F900AB
:103CC00000400600809FBE00829FBE00849FBE0011
:103CD0008637EC001FD7BF00E47121001442780042
:103CE0000482FB0004024200013020000102420075
:103CF000810F52000E00320082C1B3000440BC00AC
:103D000061722100010141001000200001302000FB
:103D100015B98000808162000100320031197800FD
:103D2000848F50000200320000004000F8FF37008E
:103D30001F57EC001FF7B700E44F500002003A0095
:103D40001F77EF002017A80085A0A9004F02BE0032
:103D50004F01BE004F00BE00004006003600F800D4
:103D6000809FBE00829FBE00849FBE00869FBE00D3
:103D70008620A90080882100C4880200000000007D
:103D80004F03BE004F02BE004F01BE004F00BE00F9
:103D90003600F90000400600809FBE00821F7800B8
:103DA0000500FC001002800000017800000E2000D9
:103DB0004220B7008500A900110280000300FC002A
:103DC0000200780080007800110288004F0178001E
:103DD0004F00BE00004006003600F800809FBE0085
:103DE000829FBE00849FBE00869FBE00889FBE004B
:103DF0008A1F78003200F80000202000900188001F
:103E0000F0AD8000E10F500007003A0094C4AB0011
:103E100005003A008AA4EF008C04A8008C84A80056
:103E200020002000F0AD88008084AB000600320046
:103E30008284AB00040032000001200000248800CE
:103E40006A290200010000008824AB000200320051
:103E50008EC0A900630037008A04AB00090032005D
:103E60008C04AB000700320034E9020000000000BF
:103E70009EC0A80040002000F0AD88001000200087
:103E8000502488008A84AB00060032008C84AB008A
:103E9000040032007428020001000000000120002C
:103EA000502488008A44AB00100032008C44AB00E0
:103EB00005003200120020008000EB0030072000D7
:103EC0000228020001000000400020005024880069
:103ED000E2D5BF0001003200E275ED00E2D5BF007F
:103EE00002003A003E0B0200010000008AE4AB0031
:103EF000040032008CE4AB0002003200C422020055
:103F0000010000008A24AB000A0032008C24AB00C0
:103F100008003200120020008000EB00F0FF2700B4
:103F200002280200010000008EA4EF002000200003
:103F300050248800F0AD8000E30F500002003E00E6
:103F40008EC0A900270037008C64AB00240032002B
:103F500050248000680060000044EB0089002000CD
:103F60002A07200003003A001D0037008A64AB00D6
:103F70001B003200912480008000FD00DAF5B700BC
:103F80008000FD00A15D2100914078008180FB0050
:103F9000C408DE008000FD00DBF5B7008000FD00F6
:103FA00059248800B15D210091407800E0CF500095
:103FB00003003A003E010200010000000500370046
:103FC0000001EB00A15D21000A0078000228020038
:103FD000010000000844E800E34F5400E3FF36000E
:103FE0008EC0A9003200F9004F0578004F04BE00D2
:103FF0004F03BE004F02BE004F01BE004F00BE0087
:104000003600F90000400600809FBE00FF3FFC0024
:104010008460A90030CD800041CD80006100400067
:10402000E080480030CD880041CD88000000FC00D1
:10403000A6D9BF006300600008003A008579EC0053
:1040400085D9BF0005003A00619821001100E80001
:104050008008780001003A008839EC004F00BE006B
:1040600000400600000000000000000000400600C4
:10407000000000000000000000400600809FBE001D
:104080000010A9003906AB00080032000000EB0068
:10409000310620000000E800810F5000FDFF3600CF
:1040A0003906AB00010032000010A8008640A900CC
:1040B0003926A9004F00BE00004006000040DA008B
:1040C0000000FE000000FA0007E2A9009600A90027
:1040D0009620A9008600A9008620A9000080FA0089
:1040E000000006000200FA00000F78008660A900B8
:1040F0001E00780000407800674060006740600064
:10410000674060000080FB00670060004C00DD003D
:1041100062058000F1FF28008100610000807000CE
:10412000600588009E007800688060004300DE0023
:1041300000407800614060000080FB00610060008A
:104140004300DD00B204800071FF2F008100610098
:1041500000807000B00488000080FA0000000600B3
:1041600002C2B300010037000000E8009040780070
:1041700082CF5000FCFF3200E9CF5000FAFF32003E
:10418000D2C2B30082CF500003003A000000E80022
:1041900012C0B300050037000041EB00B3C2B3000A
:1041A00083CF500001003A000000E8008000EB00DF
:1041B000050037006A0AB90001FD2F008480400025
:1041C000838040000000E8009001FB0004FD2F0008
:1041D00003024200E90F5200F6FF3600E04F5100A3
:1041E000010032008100EA000100780000000600B2
:1041F000889FBE008A9FBE008004780000C2B30082
:1042000039447800804F5400FDFF3200E94F5400DC
:10421000FBFF3200D0C2B300804F540003003A00CD
:10422000394478001AC0B300050037000045EB00A0
:10423000B0C2B300804F540001003A003944780006
:104240006000B8000BCDB30009003700A2002000C9
:1042500003002000750107000B4144000281FB00B0
:1042600003002000020040008380480039447800A9
:104270000881FB000203B100E90F5100F3FF360093
:10428000E04F55000200320060001000E08018008E
:104290004F05BE004F04BE0000000600889FBE0010
:1042A0008A9FBE008C9FBE00800678000204BE007C
:1042B000010578000200BE00CFD5DE000100370006
:1042C000820678000A01BE00450107000D01E800E2
:1042D000E00F5000E08F5800F9FF3A000049EB0072
:1042E0000A01BE000800BE004D010700004678002C
:1042F0000A01BE000800BE00390107000004BE002C
:10430000E94F5600010034006746460000C3B30081
:1043100080564600E00F5400E08F5C00F0FF3A004A
:104320000D0078004F06BE004F05BE004F04BE00D2
:1043300000000600E4874700889FBE008A9FBE00F9
:104340008C9FBE008E1F7800E19C230072CE8100FE
:10435000E00F51000B003A006481400072CE8900EA
:10436000C2CE8900A1009800B1CE89002141900001
:104370000204A000A2409800614190000204A00045
:10438000E2409800670440004244DE004244DD0001
:10439000B1CE81000002EB000E9E2300091E240016
:1043A0008E8454006400440080BF9F00614EB900B9
:1043B000010037008B007800214090006100600010
:1043C000020032000A00370093087800910178005B
:1043D0002340900061006000FBFF32000881400034
:1043E000828F510002003900E00F540054003D005C
:1043F00091057800818F5500EEFF3E008E8F5500AD
:1044000003003900E09C2300808F5500E9FF39004C
:10441000C0CE8100808F50005A003A00E09C2300FB
:10442000808F550057003A000402E800E10F520067
:10443000E0FF360022002000811F780011000900F3
:104440008204D800CF007800800F540005003600A9
:10445000890F5400030031000885E8000A05450073
:10446000140037006142B800B2FF2F0003002000A3
:104470000C0151008D815900820F5200838F5A0028
:104480000B003D00321E24000E01510008014100C6
:10449000809FBE00110009000981D800000178004A
:1044A0004F00BE000991B9000205780001003700F5
:1044B000080578000A007800A7000700E10F400017
:1044C00005003A000FBD97000A007800A20007001F
:1044D000E10F40002B003200C1CE8100800878003F
:1044E000C1CE8100E481400021419000830F500043
:1044F000020032000204A000010037000204A10003
:10450000A2409800640555000A0540000A0878009A
:10451000CACE8900E19C2300010D7800C2CE810043
:10452000A24090000104A00021419800A04090000A
:104530000104A100214098000002EB009DFF37001C
:10454000B2CE8900828F5100070036001202BE00F1
:10455000D4CE8900E5CE8900110978000040EB0037
:10456000B2CE810020419800B5CE81008508780048
:10457000214090000004A000A0409800648040000A
:10458000010037000000EB004F0778004F06BE0027
:104590004F05BE004F04BE004F00B10000000600F2
:1045A000E68747008E1F7800D0BF9F0066875700C0
:1045B000012F78000E003700DFB997001341780013
:1045C0006FB8970090407800814F5100040032008E
:1045D0000280FB008180FB000100500008003700D2
:1045E0008301E800D3BF9F00000FE80004017800BA
:1045F0000202E900E00F5100EFFF3A0002007800EC
:104600004F0778006F00B1000000060080017800BD
:1046100002003700B1597800040178000202E90075
:10462000E00F5100FBFF3A00000006008001780017
:104630000200370081597800040178000202E90085
:10464000E00F5100FBFF3A00000006001041780027
:10465000814F510005003200E04F5100020032004E
:104660000000E800F9FF37000000EB000000060042
:104670009041780031C1510004003A00E0CF510070
:10468000020032000000E800F9FF37000200FB00E2
:1046900000000600800078000041EB00B14F1100DF
:1046A000FDFF3A000080EA000080400000000600A4
:1046B000889FBE000004BE000B0037000900780090
:1046C000F4FF0700000178000800BE000F0007009B
:1046D000E00F50000A0032000800E8009900FB00DB
:1046E000DAFF070000047800E00F540004003200F5
:1046F0000040EB00984F1000F0FF3A000004EB0080
:10470000080078004F04BE00000006000D003700CE
:1047100010417800E04F510002003200914F5100EB
:10472000050032000281FB00914078000180FB000F
:1047300000005100000006000000E8008100E800D1
:10474000030178008201E900E00F5100F0FF3A0018
:104750000200780000000600889FBE0080047800F8
:10476000F0CE8100E00F500004003A000E00070078
:104770000084EB00E00F500008003500F8CE810007
:10478000E08F5400050032000900440006000700D5
:10479000E00F500001003D000084EB0008007800AD
:1047A0004F04BE0000000600E00F500004003A0075
:1047B000019E2300F1CE89008000780006003700BA
:1047C0008080EB00021E2400820F500002003E0099
:1047D000F0CE89008000EB000100780000000600A8
:1047E0006022B800060220000000D0008180D200C4
:1047F0000482D2008582D2000000A0000202520092
:1048000083825A00030031000202420083824A0080
:104810000000A1000603E900F3FF3A0000000600D3
:10482000EFFF07000400BE0000000600020AB90006
:10483000001BB9000200B800810042008100430063
:10484000000006000A4800005454000050320000E6
:104850003A20000046490000464F0000204F00006B
:1048600076650000726600006C6F00007733000010
:10487000002000002D20000046690000726D00003D
:10488000776100007265000020550000706C000028
:104890006F61000064000000202D00002057000020
:1048A0006562000020500000616700006520000084
:1048B000557000006C6F000061640000000A000089
:1048C000556E00006B6E00006F7700002043000003
:1048D0006F6E0000746500006E7400002D540000BF
:1048E00079700000650000000D0A00000D0A00004C
:1048F000004D00005046000053020000010000007F
:104900000A48000054540000503200003A200000D1
:104910005665000072730000696F00006E20000091
:1049200045520000524F0000520000000A520000A1
:10493000656300006569000076650000643A000068
:10494000200000000A4C0000696E00006520000095
:10495000746F00006F2000006C6F00006E67000035
:10496000000A0000202D00002045000072720000A7
:104970003A2000004C6500006E670000746800007B
:10498000203C000020310000310000000A2000001F
:104990002D20000045720000723A0000204E0000F9
:1049A0006F2000003A0000000A2000002D200000C7
:1049B000436800006B730000756D00002045000027
:1049C0007272000000750000706C00006F610000E2
:1049D00064660000697200006D2E000068740000BB
:1049E0006D0000000A4800005454000050320000DE
:1049F0003A200000496E0000766C00006420000040
:104A0000466900006C650000000A00004E6F00005F
:104A100020730000706100006365000020660000E4
:104A20006F72000020540000616700002100000048
:104A30002144000045460000000A000048540000E0
:104A400054500000323A0000204600004946000061
:104A50004F2000004F76000065720000666C000079
:104A60006F770000310000000A4800005454000035
:104A7000503200003A200000546900006D650000CB
:104A80006F750000743100000047000045540000BD
:104A9000005000004F530000540000000A4800007E
:104AA00054540000503200003A200000556E0000BF
:104AB000726300006E7A0000642000004D740000F4
:104AC00068640000000A00004854000054500000D0
:104AD000323A000020460000696C0000656E00005C
:104AE000616D000065200000746F00006F20000001
:104AF0006C6F00006E670000006D000070660000C3
:104B000073750000706C00006F61000064000000AD
:104B1000696E000064650000782E00006874000073
:104B20006D0000000A48000054540000503200009C
:104B30003A20000046490000464F0000204F000088
:104B400076650000726600006C6F0000773200002E
:104B5000000A00004854000054500000323A00009F
:104B600020540000696D0000656F0000757400003E
:104B7000320000000A480000545400005032000087
:104B80003A200000556E0000617500007468000056
:104B90006F720000697A000065640000000A00007E
:104BA0004854000054500000323A000020540000E5
:104BB000696D0000656F000075740000330000002F
:104BC0000A48000054540000503200003A2000000F
:104BD0004E6F000020420000756600006665000010
:104BE0007220000053700000616300006520000027
:104BF0006C650000667400002E000000204200007A
:104C000079740000654300006F7500006E74000049
:104C10003D00000020630000616C00006C62000039
:104C2000616300006B5000006F7300003D000000E6
:104C30000D0A00000D0A000033300000342000008F
:104C40005265000064690000726500006374000032
:104C50003A200000004300006F6E00007465000001
:104C60006E7400002D54000079700000653A000059
:104C700020000000436F00006E740000656E0000AD
:104C8000742D0000456E0000636F00006469000031
:104C90006E6700003A200000677A0000697000002B
:104CA0000D0A000000430000616300006865000019
:104CB0002D4300006F6E0000747200006F6C0000E6
:104CC0003A200000006E00006F2D000063610000BC
:104CD00063680000650000006D610000782D000031
:104CE00061670000653D00000036000030300000C4
:104CF00000530000657400002D4300006F6F00003A
:104D00006B690000653A0000200000007478000024
:104D100074000000687400006D00000068740000FA
:104D20006D6C0000006300006769000000780000FF
:104D30006D6C0000006300007373000000670000EA
:104D400069660000007000006E670000006A0000E5
:104D500070670000006300006C61000000770000D5
:104D6000617600000000000000000000000000006C
:104D700086A600008AA600008EA6000093A600006A
:104D800097A600009BA600009FA60000A3A6000017
:104D9000A7A60000ABA60000AFA60000B3A60000C7
:104DA000436F00006F6B0000696500003A0000006F
:104DB00041750000746800006F720000697A00009D
:104DC00061740000696F00006E3A0000004300004B
:104DD0006F6E0000746500006E7400002D4C0000C2
:104DE000656E000067740000683A00000043000030
:104DF0006F6E0000746500006E7400002D5400009A
:104E000079700000653A000000000000D0A60000A4
:104E1000D8A60000E7A60000F7A60000485400004E
:104E2000545000002F3100002E31000020320000CD
:104E300030300000204F00004B0D00000A430000FE
:104E40006F6E00006E65000063740000696F000003
:104E50006E3A0000206300006C6F00007365000074
:104E60000D0A00000048000054540000502F0000BC
:104E7000312E0000312000003430000030200000CE
:104E8000426100006420000052650000717500005E
:104E900065730000740D00000A4300006F6E00008F
:104EA0006E65000063740000696F00006E3A0000D8
:104EB000206300006C6F0000736500000D0A0000A5
:104EC0000D0A000034300000302000004261000074
:104ED00064200000526500007175000065730000D9
:104EE000743A000020630000616E00002774000027
:104EF00020680000616E0000646C00006520000006
:104F0000436F00006E740000656E0000742D000099
:104F10004C6500006E670000746800000D0A000018
:104F20000048000054540000502F0000312E0000B3
:104F3000312000003430000031200000556E0000A8
:104F400061750000746800006F720000697A0000EB
:104F5000656400000D0A000057570000572D00003F
:104F60004175000074680000656E000074690000FF
:104F700063610000746500003A2000004261000097
:104F8000736900006320000072650000616C00001E
:104F90006D3D000022500000726F0000746500003B
:104FA0006374000065640000220D00000A430000E5
:104FB0006F6E00006E65000063740000696F000092
:104FC0006E3A0000206300006C6F00007365000003
:104FD0000D0A00000D0A00003430000031200000EE
:104FE000556E000061750000746800006F7200006B
:104FF000697A0000656400003A20000050610000FA
:1050000073730000776F000072640000207200006C
:10501000657100007569000072650000640D000094
:105020000A00000048540000545000002F310000D6
:105030002E3100002034000030340000204E0000EB
:105040006F740000206600006F7500006E64000041
:105050000D0A0000436F00006E6E000065630000E3
:10506000746900006F6E00003A200000636C00005D
:105070006F730000650D00000A4300006F6E0000B2
:10508000746500006E7400002D54000079700000FB
:10509000653A00002074000065780000742F00005D
:1050A000687400006D6C00000D0A00000D0A00001D
:1050B00034300000343A000020460000696C0000E3
:1050C000652000006E6F000074200000666F000015
:1050D000756E0000643C0000627200003E550000E6
:1050E00073650000203C0000612000006872000031
:1050F000656600003D2200002F6D00007066000014
:1051000073750000706C00006F6100006422000085
:105110003E4D000050460000532000005570000036
:105120006C6F0000616400003C2F0000613E0000D5
:10513000207400006F200000707200006F67000094
:10514000726100006D2000007765000062200000A1
:105150007061000067650000730D00000A00000028
:1051600048540000545000002F3100002E31000040
:10517000203400003134000020520000657100002E
:1051800075650000737400002D5500005249000041
:10519000205400006F6F0000204C00006F6E000074
:1051A000670D00000A4300006F6E00006E6500008E
:1051B00063740000696F00006E3A00002063000015
:1051C0006C6F0000736500000D0A00000D0A0000FE
:1051D0003431000034200000526500007175000079
:1051E00065730000742D0000555200004920000036
:1051F000546F00006F2000004C6F00006E670000CD
:105200003A200000427500006666000065720000EA
:10521000206F000076650000726600006C6F000071
:10522000772000006465000074650000637400006E
:10523000656400000D0A000000480000545400009E
:10524000502F0000312E00003120000035300000CA
:1052500030200000496E000074650000726E00008E
:10526000616C00002053000065720000766500004C
:105270007220000045720000726F0000720D000085
:105280000A4300006F6E00006E650000637400004A
:10529000696F00006E3A0000206300006C6F000030
:1052A000736500000D0A00000D0A00003530000093
:1052B00030200000496E000074650000726E00002E
:1052C000616C0000205300006572000076650000EC
:1052D0007220000045720000726F0000723A0000F8
:1052E00020450000787000006563000074650000D0
:1052F000642000006461000074610000206E000002
:105300006F7400002070000072650000736500007B
:105310006E7400000D0A00000048000054540000A4
:10532000502F0000312E00003120000035300000E9
:10533000312000004E6F000074200000496D000015
:10534000706C0000656D0000656E00007465000003
:10535000640D00000A4300006F6E00006E650000DF
:1053600063740000696F00006E3A00002063000063
:105370006C6F0000736500000D0A00000D0A00004C
:1053800035300000312000004E6F00007420000016
:10539000496D0000706C0000656D0000656E0000D6
:1053A00074650000643A0000204F00006E6C00003D
:1053B000792000004745000054200000616E000085
:1053C00064200000504F0000535400002073000080
:1053D00075700000706F000072740000656400005A
:1053E0000D0A00000048000054540000502F000037
:1053F000312E00003120000032300000302000004B
:105400004F4B00000D0A0000436F00006E6E00005D
:1054100065630000746900006F6E00003A200000B0
:10542000636C00006F730000650D00000A4300000C
:105430006F6E0000746500006E7400002D54000053
:1054400079700000653A0000207400006578000063
:10545000742F0000687400006D6C00000D0A0000DD
:105460000D0A00003C680000746D00006C3E0000F6
:105470003C6200006F64000079200000737400003B
:10548000796C0000653D0000226D00006172000033
:10549000676900006E3A0000313000003070000093
:1054A000782200003E3C0000666F0000726D000034
:1054B000206D000065740000686F0000643D00000E
:1054C000706F0000737400002061000063740000BE
:1054D000696F00006E3D0000222F00006D7000001B
:1054E00066730000757000006C6F0000616400005E
:1054F00022200000656E00006374000079700000D7
:10550000653D0000226D0000756C000074690000AC
:1055100070610000727400002F6600006F7200005E
:105520006D2D00006461000074610000223E0000E7
:105530003C6200003E4D0000504600005320000039
:10554000496D000061670000652000005570000093
:105550006C6F0000616400003C2F0000623E0000A0
:105560003C7000003E3C0000696E00007075000059
:105570007420000074790000706500003D66000032
:10558000696C0000652000006E6100006D65000020
:105590003D69000020730000697A0000653D00004D
:1055A000343000003E200000266E000062730000D0
:1055B000703B0000203C0000696E00007075000028
:1055C0007420000074790000706500003D730000D5
:1055D000756200006D6900007420000076610000B3
:1055E0006C750000653D000022550000706C0000E5
:1055F0006F610000642200003E3C00002F66000046
:105600006F7200006D3E00003C2F0000626F0000D2
:10561000647900003E3C00002F680000746D0000BB
:105620006C3E000000000000485400005450000090
:105630002F3100002E3100002032000030300000F9
:10564000204F00004B0D00000A4300006F6E000069
:105650006E65000063740000696F00006E3A000020
:10566000206300006C6F0000736500000D0A0000ED
:10567000436F00006E740000656E0000742D000022
:1056800054790000706500003A2000007465000045
:10569000787400002F680000746D00006C0D00002D
:1056A0000A0D00000A3C0000687400006D6C0000E8
:1056B0003E3C0000626F000064790000207300002F
:1056C000747900006C6500003D2200006D610000EF
:1056D00072670000696E00003A310000303000004F
:1056E00070780000223E00003C6200003E4D000049
:1056F0005046000053200000557000006461000017
:1057000074650000205300007563000063650000AD
:1057100073730000667500006C3C00002F6200008F
:105720003E3C0000703E00003C610000206800002C
:1057300072650000663D0000222F0000223E00003E
:105740005369000074650000206D0000616900006D
:105750006E20000070610000676500003C2F0000B3
:10576000613E00003C2F0000626F00006479000081
:105770003E3C00002F680000746D00006C3E00008D
:105780000048000054540000502F0000312E00004B
:10579000312000003530000030200000496E00004C
:1057A00074650000726E0000616C00002053000000
:1057B00065720000766500007220000045720000EE
:1057C000726F0000720D00000A4300006F6E00004F
:1057D0006E65000063740000696F00006E3A00009F
:1057E000206300006C6F0000736500000D0A00006C
:1057F000436F00006E740000656E0000742D0000A1
:1058000054790000706500003A20000074650000C3
:10581000787400002F680000746D00006C0D0000AB
:105820000A0D00000A3C0000687400006D6C000066
:105830003E3C0000626F00006479000020730000AD
:10584000747900006C6500003D2200006D6100006D
:1058500072670000696E00003A31000030300000CD
:1058600070780000223E00003C6200003E4D0000C7
:105870005046000053200000496D000061670000A1
:1058800065200000436F0000727200007570000018
:10589000742000006F72000020570000726F00003B
:1058A0006E670000205600006572000073690000FA
:1058B0006F6E00003C2F0000623E00003C70000054
:1058C0003E3C00002F6200006F640000793E000043
:1058D0003C2F0000687400006D6C00003E0000006A
:1058E00048540000545000002F3100002E310000B9
:1058F0002033000030320000204600006F750000A9
:105900006E6400000D0A0000436F00006E6E000020
:1059100065630000746900006F6E00003A200000AB
:10592000636C00006F730000650D00000A4C0000FE
:105930006F63000061740000696F00006E3A000040
:105940002000000048540000545000002F31000097
:105950002E310000203400003033000020460000CB
:105960006F7200006269000064640000656E0000F0
:105970000D0A0000436F00006E6E000065630000BA
:10598000746900006F6E00003A200000636C000034
:105990006F730000650D00000A0D00000A3400005E
:1059A00030330000204600006F7200006269000082
:1059B00064640000656E00003A200000535300004C
:1059C0004C200000526500007175000069720000F3
:1059D00065640000202D0000207500007365000044
:1059E0002048000054540000505300000D0A0000ED
:1059F000000000000EA700000EA7000033A7000063
:105A000091A7000012A80000B0A800001DA9000086
:105A10008DA90000F3A9000013AB000014AB000037
:105A2000C1AB000070AC0000A2AC00000D0A000089
:105A30000074000065780000742F0000706C000096
:105A4000616900006E000000746500007874000059
:105A50002F680000746D00006C0000007465000089
:105A6000787400002F7800006D6C00000074000056
:105A700065780000742F000063730000730000005D
:105A8000696D000061670000652F00006769000014
:105A900066000000696D000061670000652F00006E
:105AA000706E000067000000696D00006167000013
:105AB000652F00006A70000065670000006100004B
:105AC000707000006C690000636100007469000080
:105AD0006F6E00002F6A000061760000612D0000EB
:105AE000766D00000061000075640000696F0000C1
:105AF0002F7800002D77000061760000650000001F
:105B000019AD000024AD000024AD000024AD00005C
:105B10002EAD000037AD000040AD00004AAD0000E2
:105B200054AD00005FAD000073AD000013AB00008A
:105B30006D7500006C7400006970000061720000F7
:105B4000742F0000666F0000726D00002D6400006D
:105B5000617400006100000061700000706C000062
:105B60006963000061740000696F00006E2F00001F
:105B7000782D000077770000772D0000666F000019
:105B8000726D00002D750000726C0000656E0000E3
:105B9000636F0000646500006400000098AD0000C1
:105BA000ACAD000000010000C8020000A00500002C
:105BB00000FF0000000000000000000000000000E6
:105BC00000000000000000000000000000000000D5
:105BD00000000000000000000000000000000000C5
:105BE0000000000001010000F40300000A010000B1
:105BF00000010000FFFF0000000000000A0100009B
:105C000000FE00000A01000000FE0000000000008D
:105C1000000000000A01000000010000FFFF00007A
:105C2000000000004D43000048500000424F0000BB
:105C3000415200004400000000000000000000008D
:105C4000000000000100000000040000A3000000AC
:105C50000000000000000000000000000000000044
:105C60000000000002010000E70700000000000043
:105C70000000000000000000000000000000000024
:105C80000000000000000000000000000000000014
:105C90000000000000000000000000000000000004
:105CA00000000000000000000000000000000000F4
:105CB00000000000000000000000000000000000E4
:105CC00000000000000000000000000000000000D4
:105CD00000000000000000000000000000000000C4
:105CE00000000000000000000000000000000000B4
:105CF00000000000000000000000000000000000A4
:105D00000000000000000000000000000000000093
:105D10000000000000000000000000000000000083
:105D20000000000000000000000000000000000073
:105D30000000000000000000000000000000000063
:105D40000000000000000000000000000000000053
:105D50000000000000000000000000000000000043
:105D60000000000003010000FA030000707500004D
:105D7000626C000069630000000000000072000017
:105D800065610000640000000000000000000000E9
:105D90000000000000000000000000000000000003
:105DA00000700000726900007661000074650000F8
:105DB00000000000777200006974000065000000B8
:105DC0000000000000700000756200006C690000B7
:105DD0006300000000000000000000000000000060
:105DE0000000000004010000DA03000000000000D1
:105DF000616400006D6900006E000000000000009A
:105E000000000000000000006D69000063720000E7
:105E10006F6300006869000070000000000000006F
:105E20000000000000000000000000000000000072
:105E30000000000000000000000000000000000062
:105E40000000000000000000000000000000000052
:105E50000000000000000000000000000000000042
:105E60000000000005010000CA010000030000005E
:105E70006BD300006CD300006DD300006ED3000024
:105E80000000000000000000000000000000000012
:105E90000000000000000000000000000000000002
:105EA0000000000008010000E2070000F30000000D
:105EB00000000000000000002000000020000000A2
:105EC0000000000000000000200000002000000092
:105ED0000000000000000000200000002000000082
:105EE0000000000000000000200000002000000072
:105EF0000000000010100000200000002000000042
:105F00000000000010100000200000002000000031
:105F10000000000010100000000100004000000020
:105F200000000000101000008000000020000000B1
:105F30000000000000000000000000000000000061
:105F40000000000000000000000000000000000051
:105F50000000000000000000000000000000000041
:105F60000000000000000000000000000000000031
:105F70000000000000000000000000000000000021
:105F80000000000000000000000000000000000011
:105F90000000000000000000000000000000000001
:105FA0000000000009010000E2070000FF000000FF
:105FB0000000000010100000800000002000000021
:105FC0000000000000000000200000002000000091
:105FD0000000000000000000200000002000000081
:105FE0000000000000000000200000002000000071
:105FF0000000000000000000200000002000000061
:106000000000000000000000200000002000000050
:106010000000000000000000200000002000000040
:10602000000000000101000020000000200000002E
:106030000000000000000000000000000000000060
:106040000000000000000000000000000000000050
:106050000000000000000000000000000000000040
:106060000000000000000000000000000000000030
:106070000000000000000000000000000000000020
:106080000000000000000000000000000000000010
:106090000000000000000000000000000000000000
:1060A000000000000A010000E207000003000000F9
:1060B00000000000000000002000000020000000A0
:1060C0000000000000000000200000002000000090
:1060D0000000000000000000200000002000000080
:1060E0000000000000000000200000002000000070
:1060F0000000000000000000200000002000000060
:10610000000000000000000020000000200000004F
:10611000000000000000000020000000200000003F
:10612000000000000000000020000000200000002F
:10613000000000000000000000000000000000005F
:10614000000000000000000000000000000000004F
:10615000000000000000000000000000000000003F
:10616000000000000000000000000000000000002F
:10617000000000000000000000000000000000001F
:10618000000000000000000000000000000000000F
:1061900000000000000000000000000000000000FF
:1061A000000000000B010000C2050000000000001C
:1061B00000000000000000000000000000000000DF
:1061C00000000000000000000000000000000000CF
:1061D00000000000000000000000000000000000BF
:1061E00000000000000000000000000000000000AF
:1061F000000000000000000000000000000000009F
:10620000000000000000000000000000000000008E
:10621000000000000000000000000000000000007E
:10622000000000000000000000000000000000006E
:10623000000000000000000000000000000000005E
:10624000000000000000000000000000000000004E
:10625000000000000000000000000000000000003E
:106260000000000014010000F00F0000000000001A
:10627000000000000000000000000000000000001E
:10628000000000000000000000000000000000000E
:1062900000000000000000000000000000000000FE
:1062A00000000000000000000000000000000000EE
:1062B00000000000000000000000000000000000DE
:1062C00000000000000000000000000000000000CE
:1062D00000000000000000000000000000000000BE
:1062E00000000000000000000000000000000000AE
:1062F000000000000000000000000000000000009E
:10630000000000000000000000000000000000008D
:10631000000000000000000000000000000000007D
:10632000000000000000000000000000000000006D
:10633000000000000000000000000000000000005D
:10634000000000000000000000000000000000004D
:10635000000000000000000000000000000000003D
:10636000000000000000000000000000000000002D
:10637000000000000000000000000000000000001D
:10638000000000000000000000000000000000000D
:1063900000000000000000000000000000000000FD
:1063A00000000000000000000000000000000000ED
:1063B00000000000000000000000000000000000DD
:1063C00000000000000000000000000000000000CD
:1063D00000000000000000000000000000000000BD
:1063E00000000000000000000000000000000000AD
:1063F000000000000000000000000000000000009D
:10640000000000000000000000000000000000008C
:10641000000000000000000000000000000000007C
:10642000000000000000000000000000000000006C
:10643000000000000000000000000000000000005C
:10644000000000000000000000000000000000004C
:10645000000000000000000000000000000000003C
:106460000000000015010000EA030000FF0000002A
:10647000000000000000000000000000000000001C
:10648000000000000000000000000000000000000C
:1064900000000000000000000000000000000000FC
:1064A00000000000000000000000000000000000EC
:1064B00000000000000000000000000000000000DC
:1064C00000000000000000000000000000000000CC
:1064D00000000000000000000000000000000000BC
:1064E0000000000010010000FA0F00000000000092
:1064F000000000000000000000000000000000009C
:10650000000000000000000000000000000000008B
:10651000000000000000000000000000000000007B
:10652000000000000000000000000000000000006B
:10653000000000000000000000000000000000005B
:10654000000000000000000000000000000000004B
:10655000000000000000000000000000000000003B
:10656000000000000000000000000000000000002B
:10657000000000000000000000000000000000001B
:10658000000000000000000000000000000000000B
:1065900000000000000000000000000000000000FB
:1065A00000000000000000000000000000000000EB
:1065B00000000000000000000000000000000000DB
:1065C00000000000000000000000000000000000CB
:1065D00000000000000000000000000000000000BB
:1065E00000000000000000000000000000000000AB
:1065F000000000000000000000000000000000009B
:10660000000000000000000000000000000000008A
:10661000000000000000000000000000000000007A
:10662000000000000000000000000000000000006A
:10663000000000000000000000000000000000005A
:10664000000000000000000000000000000000004A
:10665000000000000000000000000000000000003A
:10666000000000000000000000000000000000002A
:10667000000000000000000000000000000000001A
:10668000000000000000000000000000000000000A
:1066900000000000000000000000000000000000FA
:1066A00000000000000000000000000000000000EA
:1066B00000000000000000000000000000000000DA
:1066C00000000000000000000000000000000000CA
:1066D00000000000000000000000000000000000BA
:1066E0000000000000820000E00A0000DF0000005F
:1066F00000000000DF00000000000000DF000000DC
:1067000000000000CF00000000000000DF000000DB
:1067100000000000DF00000000000000DF000000BB
:1067200000000000DF00000000000000DF000000AB
:1067300000000000DF00000000000000CF000000AB
:1067400000000000CF00000000000000000000007A
:10675000000000000000000000000000DF0000005A
:1067600000000000DF00000000000000DB09000066
:1067700000000000DB01000000000000DB01000061
:1067800000000000DB01000000000000CB00000062
:1067900000000000CB00000000000000000000002E
:1067A00000000000DB03000000000000DB0500002B
:1067B00000000000000000000000000000000000D9
:1067C00000000000000000000000000000000000C9
:1067D00000000000000000000000000000000000B9
:1067E00000000000CB00000000000000CB01000012
:1067F00000000000DB01000000000000DB030000DF
:1068000000000000DB05000000000000DB000000CD
:1068100000000000DB00000000000000DB000000C2
:1068200000000000DB00000000000000000000008D
:106830000000000000000000000000000000000058
:10684000000000000020000082E800000B000000B3
:106850005830000000010000583100000002000024
:10686000583200000003000058330000000400000C
:1068700058340000000500005835000000240000D6
:1068800058360000002500005837000000260000A0
:10689000583800000027000058390000002600008A
:1068A0005831000030270000583100003117000037
:1068B00053440000001800005343000000FF000094
:1068C0004E41000000FF00004E41000000FF0000AC
:1068D0004E41000000FF00004E410000000000009B
:1068E00000000000000000000000000000060000A2
:1068F00054300000000700005431000000FF000089
:106900004E41000000FF00004E41000000FF00006B
:106910004E41000000FF00004E410000002000003A
:106920005434000000210000543500000022000013
:106930005436000000230000543700000008000017
:10694000593000000009000059310000000A000021
:1069500059320000000B000059330000000C000009
:1069600059340000000F00005935000000100000ED
:1069700059360000001100005937000000120000D5
:1069800059380000001300005939000000140000BD
:10699000593100003015000059310000310000006D
:1069A00000000000000000000000000000000000E7
:1069B00000000000000000000000000000000000D7
:1069C00000000000000000000D0A0000000D0000A3
:1069D0000A0D00000A000000697000000067000056
:1069E000770000007375000062000000646E000014
:1069F00073310000006400006E730000320000007C
:106A00006D61000063000000686F00007374000097
:106A10000064000068630000700000002F70000038
:106A2000726F000074650000637400002F72000034
:106A3000656200006F6F0000742E00006874000033
:106A40006D3F0000002F0000707200006F740000A6
:106A500065630000742F0000636F00006E66000025
:106A6000696700002E680000746D0000004D000092
:106A700069630000726F00006368000069700000C5
:106A800020540000435000002F4900005020000017
:106A900053740000616300006B2000005374000019
:106AA00061740000757300002055000070640000E0
:106AB0006174000065000000225300004D54000086
:106AC00050200000536500007276000069630000EA
:106AD00065220000203C00006D630000687000002B
:106AE000626F000061720000644000007069000085
:106AF0006373000061720000656700006F6F000043
:106B0000642E0000636F00006D3E0000004D000029
:106B1000494D0000452D00007665000072730000AD
:106B2000696F00006E3A0000203100002E30000036
:106B30000D0A0000436F00006E740000656E0000D7
:106B4000742D000074790000706500003A20000088
:106B50006D7500006C7400006970000061720000C7
:106B6000742F00006D69000078650000643B000030
:106B7000206200006F7500006E640000617200000A
:106B8000793D000022660000726F00006E74000004
:106B900069650000722200000D0A00000073000009
:106BA000657200007665000072000000706F0000E2
:106BB0007274000000750000736500007200000030
:106BC0007061000073730000007400006F0000002B
:106BD0006D730000670000005468000069730000D6
:106BE0002069000073200000612000006D75000026
:106BF0006C740000692D0000706100007274000068
:106C0000206D00006573000073610000676500007F
:106C1000206900006E2000004D4900004D45000035
:106C2000206600006F7200006D610000742E00008D
:106C30000D0A0000002D00002D660000726F00009C
:106C40006E74000069650000720D00000A430000C8
:106C50006F6E0000746500006E7400002D740000FB
:106C600079700000653A000020740000657800002B
:106C7000742F0000706C0000616900006E0D000050
:106C80000A0D00000A0000000D0A00002D2D000072
:106C9000667200006F6E000074690000657200008B
:106CA0000D0A0000436F00006E740000656E000066
:106CB000742D000074790000706500003A20000017
:106CC00074650000787400002F6300007376000084
:106CD0000D0A0000436F00006E740000656E000036
:106CE000742D000044690000737000006F73000091
:106CF00069740000696F00006E3A000020610000B6
:106D00007474000061630000686D0000656E00002F
:106D1000743B000020660000696C0000656E000096
:106D2000616D0000653D0000227300007461000089
:106D300074750000732E000063730000762200005B
:106D40000D0A00000D0A0000005300005953000016
:106D5000544500004D2000005354000041540000F1
:106D6000555300000D0A0000004200007574000039
:106D7000746F00006E7300003A2C0000004C00009D
:106D800045440000733A00002C000000506F0000E2
:106D9000743A00002C0000002D2D000066720000E7
:106DA0006F6E000074690000657200002D2D0000F8
:106DB0000D0A0000002F0000656D000061690000F1
:106DC0006C2F0000696E000064650000782E0000E2
:106DD000687400006D0000007365000072760000AA
:106DE00069630000650000002F640000796E0000F8
:106DF000646E0000732F0000696E0000646500007F
:106E0000782E0000687400006D00000070720000B1
:106E10006F7400006563000074000000736E000072
:106E20006D700000006D000070660000737500005A
:106E3000706C00006F61000064000000616400007D
:106E40006D6900006E0000006D6900006372000053
:106E50006F63000068690000700000006E7A000037
:106E6000636B0000732E0000687400006D0000006A
:106E7000757000006C6F00006164000066690000BE
:106E80006C6500002E680000746D0000007000004A
:106E9000726F000074650000637400002F630000CF
:106EA0006F6E000066690000672E000068740000C5
:106EB0006D000000656D0000616900006C2F00002E
:106EC000696E000064650000782E000068740000A0
:106ED0006D000000647900006E6400006E730000B5
:106EE0002F6900006E640000657800002E680000C5
:106EF000746D0000004A0000756C00002032000034
:106F00003920000032300000313400002030000011
:106F1000303A0000303800003A3000003000000005
:106F20004E6F0000204C0000434400002050000041
:106F300072650000736500006E740000003C000084
:106F4000623E0000557000006C6F0000616400003C
:106F50002061000020460000696C0000653C0000D4
:106F60002F6200003E0000003C6200003E55000021
:106F7000706C00006F610000646500006420000018
:106F8000466900006C65000027730000204D00007A
:106F90004435000020770000617300003A3C000097
:106FA0002F6200003E3C000062720000202F0000B3
:106FB0003E00000063680000656300006B65000030
:106FC00064000000626C00006F6300006B00000052
:106FD0006E6F00006E650000000000000A450000B2
:106FE000525200003A20000075630000706F0000EC
:106FF0007274000047650000744900006E64000070
:107000006578000028290000206900006E760000E5
:10701000616C000069640000204900004421000008
:10702000000A000045520000523A000020700000A3
:107030006F72000074530000657400004269000024
:1070400074610000647200002829000020690000BB
:107050006E760000616C0000696400002042000050
:10706000697400006164000072210000000A0000E1
:1070700045520000523A0000207000006F7200007C
:10708000744300006C6500006172000042690000FA
:10709000746100006472000028290000206900006B
:1070A0006E760000616C0000696400002042000000
:1070B000697400006164000072210000000A000091
:1070C00045520000523A0000207000006F7200002C
:1070D0007457000072690000746500004269000086
:1070E000746100006472000028290000206900001B
:1070F0006E760000616C00006964000020420000B0
:10710000697400006164000072210000000A000040
:1071100045520000523A0000207000006F720000DB
:107120007447000065740000545200004953000089
:1071300028290000206900006E760000616C0000C4
:10714000696400002049000044210000000A00009A
:1071500045520000523A0000207000006F7200009B
:107160007447000065740000545200004953000049
:10717000774F000066660000736500007428000009
:1071800029200000696E0000766100006C69000033
:107190006420000049440000210000000A4500006E
:1071A000525200003A20000075630000706F00002A
:1071B00072740000476500007454000052490000DA
:1071C0005328000029200000696E0000766100004D
:1071D0006C690000642000004944000021000000A8
:1071E0000A450000525200003A200000756300007A
:1071F000706F000072740000476500007454000056
:1072000052490000537700004F660000667300008B
:107210006574000028290000206900006E760000D7
:10722000616C0000696400002049000044210000F6
:10723000000A000045520000523A0000207500008C
:10724000637000006F7200007447000065740000F6
:10725000434E00005044000028290000206900002F
:107260006E760000616C0000696400002049000037
:1072700044210000000A000045520000523A00007C
:10728000207000006F7200007447000065740000F9
:10729000434E000050440000774F00006666000037
:1072A000736500007428000029200000696E00004A
:1072B000766100006C690000642000004944000011
:1072C000210000000A450000525200003A20000050
:1072D000706F000072740000476500007443000086
:1072E0004E5000004428000029200000696E000074
:1072F000766100006C6900006420000049440000D1
:10730000210000000A7000006F720000744300004A
:107310006F6E0000666900006728000029200000E9
:10732000496E000076200000706F0000727400004B
:1073300049440000210000000A45000052520000AC
:107340003A20000075630000706F00007274000046
:1073500047650000744300004E5000004477000071
:107360004F66000066730000657400002829000065
:10737000206900006E760000616C00006964000006
:10738000204900004421000000000000C802000065
:10739000C8120000C8220000C8320000C842000025
:1073A000C8520000F0620000F0720000F08200009D
:1073B000F0920000F0820000F0920000D8920000ED
:1073C000D8A20000FFFF0000FFFF0000FFFF000049
:1073D000FFFF0000FFFF0000FFFF0000C862000089
:1073E000C8720000FFFF0000FFFF0000FFFF000069
:1073F000FFFF0000E8120000E8320000E842000051
:10740000E8520000C8820000C8920000C8A2000034
:10741000C8B20000C8E20000C8F20000D8020000B4
:10742000D8120000D8220000D8320000D862000034
:10743000D872000010110000121300001415000093
:10744000666700006869000068690000393A00005A
:10745000FFFF0000FFFF0000FFFF00001617000005
:10746000FFFF0000FFFF00005153000054550000D3
:10747000181900001A1B00001E1F00003031000008
:107480003233000036370000000100000203000024
:107490000405000024250000262700002627000000
:1074A00017180000FFFF0000FFFF0000FFFF0000B3
:1074B00006070000FFFF0000FFFF00002021000082
:1074C00022230000080900000A0B00000C0F000036
:1074D0001011000012130000141500000203000038
:1074E0000405000006070000181900001A1B000020
:1074F0001C1D00001E1F0000200C0000FFFF0000EC
:10750000FFFF0000FFFF0000FFFF0000FFFF000083
:10751000FFFF0000170100000016000031320000DC
:10752000333400000D0E00000F100000FFFF0000BC
:10753000FFFF0000FFFF0000FFFF00003A3B0000DC
:107540003C3D00003E3F000040410000FFFF0000C6
:10755000FFFF0000FFFF0000FFFF000044450000A8
:10756000FF47000011120000FFFF0000FFFF0000B6
:10757000FFFF0000FFFF0000FFFF0000FFFF000013
:1075800053540000FFFF0000080900000A0B000030
:107590000A540000435000003A2000004E6F0000E3
:1075A000205300006B74000020410000766C000046
:1075B000626C0000000A000054430000503A0000D2
:1075C000205400004350000050750000742000005B
:1075D0006E6F0000207300007061000063650000A2
:1075E000000A000054430000503A000020540000FC
:1075F000435000005075000074410000727200009A
:1076000061790000206E00006F20000073700000A0
:1076100061630000650000000A5400004350000050
:107620003A200000466F00007263000065640000AD
:10763000206300006C6F0000736500002061000093
:107640006674000065720000207700006169000028
:10765000740000000A540000435000003A2000006B
:10766000436F00006E6E0000204300006C6F00004E
:1076700073650000642000002D20000054690000A4
:107680006D6500006F750000740000000A54000072
:10769000435000003A200000546D00006F75000058
:1076A0007420000047450000545F0000444E000075
:1076B000530000000A540000435000003A2000002C
:1076C000546D00006F75000074200000444E0000EF
:1076D000535F000052450000534F00004C5600001D
:1076E000450000000A540000435000003A2000000A
:1076F000546D00006F7500007420000047410000C9
:107700005445000057410000595F000053450000F8
:107710004E4400005F41000052500000000A00008B
:1077200054430000503A0000205400006D6F0000E8
:1077300075740000204700004154000045570000C8
:10774000415900005F470000455400005F410000C0
:1077500052500000000A000054430000503A00005C
:10776000205400006D6F000075740000205300006D
:10777000594E00005F530000454E000054000000C9
:107780000A540000435000003A200000546D0000ED
:107790006F75000074200000535900004E5F000018
:1077A0005243000056440000000A00005443000009
:1077B000503A0000205400006D6F00007574000006
:1077C00020530000594E00005F5200004356000055
:1077D000442000004D610000780000000A540000C1
:1077E000435000003A200000546D00006F75000007
:1077F000742000004553000054410000424C00003A
:1078000053480000440000000A54000043500000A8
:107810003A200000546D00006F75000074200000D5
:107820004553000054410000424C00005348000002
:10783000442000004D610000780000000A54000060
:10784000435000003A200000546D00006F750000A6
:1078500074200000464900004E5F000057410000C0
:1078600049540000204D000061780000000A00002B
:1078700054430000503A0000205400006D6F000097
:107880007574000020460000494E00005F5700005C
:107890004149000054320000000A00005443000037
:1078A000503A0000205400006D6F00007574000015
:1078B000204300004C4F0000534900004E47000099
:1078C000204D000061780000000A000054430000D1
:1078D000503A0000205400006D6F000075740000E5
:1078E000204C000041530000545F00004143000061
:1078F0004B2000004D610000780000000A54000099
:10790000435000003A200000546D00006F750000E5
:1079100074200000535900004E5F00005100000029
:1079200002000000C80000009600000008000000EF
:10793000DC050000DC05000008000000DC0500009C
:10794000DC05000008000000DC050000DC0500008C
:1079500008000000DC050000DC0500000800000055
:10796000DC050000DC05000009010000E803000060
:10797000E803000009010000E8030000E80300003C
:1079800009010000E8030000E8030000090100000D
:10799000E8030000E80300000A4D00005046000024
:1079A000533A0000204900006E7600006C6400002D
:1079B000204800006E6400006C2000002D200000B4
:1079C0004D50000046530000476500007400000061
:1079D0000A4D000050460000533A000020490000C4
:1079E0006E7600006C640000204800006E640000A9
:1079F0006C2000002D2000004D5000004653000078
:107A00004765000074410000727200006179000057
:107A1000000A00004D500000465300003A200000CC
:107A20004E6F0000204800006E6400006C200000D3
:107A3000617600006C6200006C650000202D000083
:107A4000204D000050460000534F000070650000BC
:107A50006E490000440000004D50000046530000F5
:107A600002010000000A00004D50000046530000D3
:107A70003A200000496E0000766C0000642000008F
:107A8000486400006C2000002D2000004D500000D4
:107A9000465300004F700000656E0000000A0000B1
:107AA0004D500000465300003A2000004E6F000089
:107AB000204800006E6400006C2000006176000029
:107AC0006C6200006C650000202D0000204D00005D
:107AD00050460000534F0000706500006E0000002B
:107AE0000A4D000050460000533A000020490000B3
:107AF0006E7600006C640000204800006E64000098
:107B00006C2000002D2000004D5000004653000066
:107B10004765000074540000696D00006573000043
:107B2000746100006D700000000A00004D500000FC
:107B3000465300003A200000496E0000766C0000B9
:107B400064200000486E0000646C0000202D0000DE
:107B5000204D0000504600005347000065740000AF
:107B60004D690000637200006F740000696D0000D1
:107B7000650000000A4D000050460000533A000026
:107B8000204900006E7600006C6400002048000070
:107B90006E6400006C2000002D2000004D5000009D
:107BA0004653000047650000744600006C61000009
:107BB00067730000000A00004D50000046530000AB
:107BC0003A200000496E0000766C0000642000003E
:107BD000486E0000646C0000202D0000204D000065
:107BE00050460000534700006574000053690000D0
:107BF0007A650000000A00004D5000004653000066
:107C00003A200000496E0000766C000064200000FD
:107C1000486E0000646C0000202D0000204D000024
:107C20005046000053420000797400006573000064
:107C3000526500006D0000000A4D00005046000033
:107C4000533A0000204900006E7600006C6400008A
:107C5000204800006E6400006C2000002D20000011
:107C60004D5000004653000047650000745300006B
:107C700074610000727400004164000064720000CE
:107C8000000A00004D500000465300003A2000005A
:107C9000496E0000766C000064200000486E000011
:107CA000646C0000202D0000204D000050460000B4
:107CB0005347000065740000456E000064410000F9
:107CC00064640000720000000A4D0000504600008D
:107CD000533A0000204900006E7600006C640000FA
:107CE000204800006E6400006C2000002D20000081
:107CF0004D5000004653000053650000656B0000C6
:107D0000000A00004D500000465300003A200000D9
:107D1000496E0000766C000064200000486E000090
:107D2000646C0000202D0000204D00005046000033
:107D30005347000065740000466900006C65000050
:107D40006E6100006D650000000000000D0A00007B
:107D5000546F00006F2000006D7500006368000024
:107D60002064000061740000612E00000D0A000014
:107D700000610000646D0000696E000000540000A6
:107D80006F6F0000206D0000756300006820000028
:107D900064610000746100002E0D00000A00000004
:107DA0006D690000637200006F6300006869000085
:107DB000700000001B5B0000316D0000001B000024
:107DC0005B310000303B00003135000066000000F0
:107DD0001B5B0000313100003B32000031660000C7
:107DE000001B00005B310000323B00003138000016
:107DF000660000001B5B0000313300003B310000D7
:107E000030660000001B00005B310000343B0000C6
:107E100031660000001B00005B3200004A1B0000BE
:107E20005B330000316D00001B5B0000316D000012
:107E30004D690000637200006F6300006869000014
:107E400070200000546500006C6E00006574000036
:107E5000205300006572000076650000722000006B
:107E6000312E0000311B00005B3000006D0D000062
:107E70000A280000666F000072200000746800008D
:107E80006973000020640000656D00006F2C000025
:107E90002074000079700000652000002761000058
:107EA000646D0000696E000027200000666F00000E
:107EB0007220000074680000652000006C6F0000F4
:107EC000676900006E200000616E00006420000001
:107ED000276D000069630000726F00006368000096
:107EE0006970000027200000666F0000722000000B
:107EF000746800006520000070610000737300006A
:107F0000776F0000726400002E2900000D0A000047
:107F10004C6F0000676900006E3A0000200000000E
:107F20005061000073730000776F000072640000FE
:107F30003A200000FFFD00002D0000000D0A0000A7
:107F4000416300006365000073730000206400005B
:107F5000656E000069650000640D00000A0D0000F8
:107F60000A0000000D0A00004C6F00006767000067
:107F700065640000206900006E2000007375000039
:107F8000636300006573000073660000756C000099
:107F90006C7900000D0A00000D0A00000D0A0000B7
:107FA000507200006573000073200000277100000C
:107FB00027200000746F0000207100007569000028
:107FC000740D00000A0000000D0A0000534E00006E
:107FD0005450000020540000696D0000653A000014
:107FE00020200000202000002864000069730000A9
:107FF000616200006C650000642900000D0A000049
:10800000416E0000616C00006F6700003A200000C4
:108010002020000020200000202000002020000060
:10802000202000002020000031300000323300000A
:108030000D0A000042750000747400006F6E0000AD
:10804000733A0000202000002020000020200000C3
:1080500020200000203300002032000020310000EA
:10806000203000000D0A00004C4500004473000061
:108070003A200000202000002037000020360000B9
:1080800020350000203400002033000020320000A2
:1080900020310000203000000020000020200000DF
:1080A00020200000202000002020000020000000F0
:1080B0000D0A00000D0A0000476F00006F64000009
:1080C00062790000652100000D0A00000000000038
:1080D00063680000656300006B690000702E00009B
:1080E000647900006E6400006E7300002E6300006F
:1080F0006F6D00000047000045540000202F000075
:108100002048000054540000502F0000312E000081
:10811000300D00000A4800006F730000743A000040
:10812000200000000D0A0000436F00006E6E00008A
:1081300065630000746900006F6E00003A20000063
:10814000636C00006F730000650D00000A0D0000F5
:108150000A000000416400006472000065730000C2
:10816000733A0000200000003C2F0000626F000006
:10817000647900003E0000004745000054200000E4
:108180002F6E0000696300002F750000706400000E
:1081900061740000653F0000686F000073740000A8
:1081A0006E6100006D6500003D000000266D00005E
:1081B00079690000703D000000260000776900002A
:1081C0006C64000063610000726400003D4E0000BA
:1081D0004F43000048470000266D0000783D000036
:1081E0004E4F000043480000472600006261000037
:1081F000636B00006D7800003D4E00004F430000AF
:10820000484700002048000054540000502F000050
:10821000312E0000300000000D0A0000486F000001
:10822000737400003A200000000D00000A410000B5
:1082300075740000686F0000726900007A610000C8
:10824000746900006F6E00003A2000004261000077
:108250007369000063200000000D00000A55000053
:1082600073650000722D000041670000656E00001C
:10827000743A0000204D000069630000726F000036
:108280006368000069700000202D00002054000089
:108290004350000049500000535400004143000087
:1082A0004B2000002D200000763500002E34000009
:1082B000320D00000A0D00000A0000000D0A000047
:1082C0000D0A0000006D0000656D00006265000091
:1082D000727300002E640000796E0000646E00006E
:1082E000732E00006F7200006700000064790000C8
:1082F0006E7500007064000061740000652E00005F
:108300006E6F00002D690000702E0000636F00008A
:108310006D0000007570000064610000746500006D
:10832000732E0000646E0000736F00006D6100002A
:1083300074690000632E0000636F00006D00000090
:1083400063C1000076C100008AC100005000000037
:108350005000000050000000676F00006F640000D4
:10836000006E00006F63000068670000006100009D
:108370006275000073650000006200006164000027
:108380007379000073000000626100006461000006
:10839000676500006E740000006200006164000008
:1083A000617500007468000000210000646F000027
:1083B0006E610000746F0000720000006E6F0000BC
:1083C00074660000716400006E0000006E6F0000B3
:1083D000686F00007374000000210000796F0000D6
:1083E00075720000730000006E7500006D6800007B
:1083F0006F73000074000000646E0000736500007D
:1084000072720000003900003131000000000000ED
:10841000ACC10000B1C10000B7C10000BDC1000087
:10842000C4C10000CDC10000D5C10000DEC1000004
:10843000E6C10000EDC10000F4C10000FCC1000075
:1084400003C2000054680000652000006C61000059
:1084500073740000207500007064000061740000F7
:108460006520000077610000732000007375000034
:10847000636300006573000073660000756C0000A4
:108480002E000000546800006520000049500000E4
:108490002068000061730000206E00006F7400000F
:1084A00020630000686100006E67000065640000E2
:1084B00020730000696E00006365000020740000F6
:1084C00068650000206C00006173000074200000EB
:1084D0007570000064610000746500002E000000EB
:1084E000436F0000756C0000642000006E6F000098
:1084F00074200000636F00006D6D0000756E000059
:108500006963000061740000652000007769000065
:108510007468000020440000444E00005320000016
:108520007365000072760000657200002E00000086
:10853000546800006520000063750000727200003E
:10854000656E000074200000636F00006E6600001E
:10855000696700007572000061740000696F0000B7
:108560006E20000069730000206E00006F74000030
:1085700020760000616C0000696400002E0000009D
:108580005468000065200000447900006E6100001E
:108590006D69000063200000444E0000532000007D
:1085A000636C0000696500006E74000020690000C3
:1085B00073200000706500006E640000696E0000AA
:1085C00067200000616E00002075000070640000EC
:1085D00061740000652E0000004100006E20000064
:1085E00065720000726F0000722000006F6300006F
:1085F0006375000072720000656400002064000072
:1086000075720000696E0000672000007468000049
:108610006520000075700000646100007465000052
:108620002E3C000062720000202F00003E5400002B
:108630006865000020440000444E00005320000004
:10864000436C0000696500006E7400002069000042
:10865000732000007375000073700000656E0000E9
:1086600064650000642E0000006F00006B000000D5
:10867000756E00006B00000066610000696C000010
:1086800000730000656C0000656300007465000005
:10869000640000004A7500006C20000032390000C0
:1086A0002032000030310000342000003030000063
:1086B0003A300000383A000030300000000A000074
:1086C000636D0000644700006574000054610000A1
:1086D00067280000292000006E6F00002073000052
:1086E000706100006365000021000000436D000020
:1086F000642000004C69000073740000656E000087
:108700006572000020610000727200006179000053
:1087100020660000756C00006C2100000054000011
:1087200061670000642000004C6900007374000061
:10873000656E00006572000020610000727200002A
:108740006179000020660000756C00006C2100005B
:1087500000750000204300006D640000204100000F
:1087600064720000204F0000766500007272000005
:10877000756E000021000000353600000A6300001D
:108780006275000066500000656500006B500000D7
:10879000616300006B6500007444000061740000B8
:1087A00061530000697A000065280000292000005C
:1087B0006E6F00007420000070610000636B0000A9
:1087C00065740000210000000A630000627500006B
:1087D0006647000065740000436F00006E7400007F
:1087E00069670000756F000075730000506100003C
:1087F000636B00006574000028290000206E0000F3
:108800006F74000020700000616300006B65000061
:1088100074210000000A0000627500006647000035
:108820006574000050610000636B00006574000017
:108830004461000074610000536900007A65000023
:1088400028290000206E00006F74000020700000D6
:10885000616300006B65000074210000000A0000E5
:10886000636200007566000050650000656B0000E3
:1088700050610000636B00006574000044610000FB
:10888000746100004279000074650000282900002E
:10889000206E00006F740000207000006163000013
:1088A0006B65000074210000000A00006362000094
:1088B00075660000476500007450000061630000A9
:1088C0006B65000074440000617400006153000097
:1088D000697A000065280000292000006E6F000002
:1088E0007420000070610000636B0000657400007C
:1088F000210000000A62000075660000504100007F
:1089000045430000537400007220000044730000CF
:108910007420000050630000742000004E4F0000DF
:108920005420000073750000707000006F7200002A
:108930007465000064210000000A0000636200000A
:10894000756600005041000045430000537400006C
:10895000722000004E5500004C4C0000000A000040
:10896000636200007566000050410000454300004E
:108970005374000072200000486500007820000059
:108980004572000072210000000A000063620000CE
:10899000756600005041000045430000537400001C
:1089A000722000004E6F0000205300007061000034
:1089B00063650000210000000A630000627500008A
:1089C000665000007574000050610000636B000089
:1089D0006574000028290000206E00006F740000FC
:1089E00020700000616300006B65000074200000CF
:1089F00062750000666600006572000021000000DC
:108A00000A63000062750000665000007574000083
:108A100050610000636B00006574000028290000AD
:108A2000206E00006F200000737000006163000082
:108A300065210000000A0000636200007566000006
:108A40005075000074500000616300006B65000009
:108A50007428000029200000736900007A65000076
:108A6000207400006F6F0000206200006967000042
:108A70002100000078A400006AD7000056B700006B
:108A8000C7E80000DB70000020240000EECE0000EC
:108A9000BDC10000AF0F00007CF500002AC6000039
:108AA000874700001346000030A800000195000031
:108AB00046FD0000D898000080690000AFF7000074
:108AC000448B0000B15B0000FFFF0000BED7000038
:108AD0005C89000022110000906B0000937100007F
:108AE00098FD00008E43000079A6000021080000D8
:108AF000B4490000622500001EF6000040B30000EB
:108B000040C00000515A00005E260000AAC70000C5
:108B1000B6E900005D1000002FD6000053140000DD
:108B20004402000081E60000A1D80000C8FB00005C
:108B3000D3E70000E6CD0000E1210000D6070000E9
:108B400037C30000870D0000D5F40000ED140000CD
:108B50005A45000005E90000E3A90000F8A3000061
:108B6000EFFC0000D90200006F6700008A4C000093
:108B70002A8D000042390000FAFF000081F6000053
:108B800071870000226100009D6D00000C3800001C
:108B9000E5FD000044EA0000BEA40000A9CF0000EB
:108BA000DE4B0000604B0000BBF6000070BC000014
:108BB000BFBE0000C67E00009B280000FA27000010
:108BC000A1EA000085300000EFD40000051D000080
:108BD0008804000039D00000D4D90000E5990000D5
:108BE000DBE60000F87C0000A21F000065560000D4
:108BF000ACC400004422000029F4000097FF0000EC
:108C00002A430000A723000094AB000039A0000015
:108C100093FC0000C35900005B65000092CC00008B
:108C20000C8F00007DF40000EFFF0000D15D00001C
:108C3000848500004F7E0000A86F0000E0E6000081
:108C40002CFE00001443000001A30000A11100004D
:108C5000084E0000827E000053F7000035F200004D
:108C60003ABD0000BBD20000D72A000091D300001B
:108C700086EB0000070C000011160000070C000036
:108C800011160000070C000011160000070C000070
:108C900011160000050900000E140000050900006F
:108CA0000E140000050900000E1400000509000064
:108CB0000E140000040B000010170000040B00004D
:108CC00010170000040B000010170000040B000038
:108CD00010170000060A00000F150000060A000029
:108CE0000F150000060A00000F150000060A00001C
:108CF0000F1500000A49000032430000204C00001C
:108D00006F6300006B750000702000006F6300004F
:108D1000637500007265000064210000000A000015
:108D20004932000043200000546900006D650000D6
:108D30006F75000074210000000A00004932000035
:108D4000432000005365000061720000636800006A
:108D500020530000544F00005020000054690000D0
:108D60006D6500006F75000074210000000A0000AE
:108D700045520000523A00002069000032630000B2
:108D80003142000065670000696E00005472000007
:108D9000616E0000736D000069730000736900006C
:108DA0006F6E0000000A000045520000523A0000B9
:108DB0002069000032630000314500006E6400004D
:108DC00054720000616E0000736D00006973000052
:108DD000736900006F6E0000000A00004552000039
:108DE000523A000020690000326300003157000051
:108DF0007269000074650000000A0000493200003A
:108E00004320000045520000523A0000204E00006E
:108E10006F20000073700000616300006521000096
:108E2000000A000045520000523A0000206900008C
:108E3000326300005772000069740000655300003F
:108E400074720000696E0000670000000A450000AF
:108E5000525200003A2000006932000063310000E5
:108E60005265000061640000000A000045520000E5
:108E7000523A000020690000326300005265000091
:108E800061640000546F00004172000072610000D4
:108E90007900000045520000523A0000204E0000C8
:108EA0006F41000064720000000A0000455200009B
:108EB000523A0000204E00006F4100006472000032
:108EC000000A000045520000523A00002054000001
:108ED000582000004E6F0000414300004B0000008E
:108EE0002D4F0000757400004F660000426F0000B7
:108EF000756E0000640000002D4500005252000015
:108F000020520000784200007566000020460000F4
:108F1000756C00006C2100000000000006020000DB
:108F2000160200007602000008020000180200008D
:108F3000780200000202000012020000720200002B
:108F4000000200001002000070020000616E0000CC
:108F5000760000000A4100004E3100003D00000094
:108F6000204100004E3200003D0000002041000082
:108F70004E3300003D000000616E00006F6E000087
:108F8000000A000041440000432000004F4E000052
:108F9000006100006E6F000066660000000A0000BD
:108FA00041440000432000004F46000046000000FE
:108FB00063660000674900006E6600006F000000F5
:108FC00068690000000A0000486500006C6C000041
:108FD0006F00000069700000000A000049500000A6
:108FE000204100006464000072650000737300009B
:108FF0003A200000006900006E760000616C0000FD
:10900000696400006174000065200000786500005C
:1090100065700000726F00006D0000000A440000DF
:109020006F6E00006500000074310000000A00004F
:1090300054580000494F00004E20000053740000B7
:10904000617400007573000028300000783500005E
:1090500030290000203D0000200000007432000094
:109060000047000064610000790000000A5400001D
:10907000584900004F4E000020530000746100006A
:10908000747500007328000030290000203D0000A6
:109090002000000074330000000A00005265000048
:1090A000616400003A200000000A000054580000EB
:1090B000494F00004E20000045520000524F000072
:1090C00052210000007400003400000074350000DC
:1090D0000074000036000000353000003830000019
