:10000000101D040000000000041C0000081C00007B
:100010000C1C0000101C0000141C00000C1D000033
:100020000C1D00000C1D0000181C00001C1C000012
:10003000201C0000241C00000C1D0000281C0000D7
:100040002C1C0000301C0000341C0000381C000078
:100050003C1C0000401C0000441C0000481C000028
:100060000C1D00000C1D00004C1C0000501C00006A
:10007000541C0000581C00005C1C00000C1D0000FB
:10008000601C0000641C00000C1D0000681C0000C7
:100090006C1C0000701C0000741C0000781C000028
:1000A0007C1C0000801C0000841C0000881C0000D8
:1000B0000C1D00000C1D00000C1D00008C1C00001D
:1000C000901C0000941C0000981C00009C1C000068
:1000D000A01C0000A41C0000A81C0000AC1C000018
:1000E0000C1D00000C1D00000C1D0000B01C0000C9
:1000F000B41C00000C1D00000C1D0000B81C00000A
:10010000BC1C00000C1D00000C1D00000C1D00009C
:100110000C1D00000C1D00000C1D00000C1D00003B
:10012000C01C00000C1D00000C1D0000C41C0000C1
:10013000C81C0000CC1C00000C1D00000C1D0000A1
:100140000C1D00000C1D0000D01C00000C1D000048
:100150000C1D00000C1D00000C1D0000D41C000034
:100160000C1D00000C1D00000C1D0000D81C000020
:10017000DC1C0000E01C0000E41C0000E81C000087
:10018000EC1C0000F01C0000F41C0000F81C000037
:10019000FC1C0000001D0000041D0000081D0000E4
:1001A0000C1D00000C1D00000C1D00000C1D0000AB
:1001B0000C1D00000C1D00000C1D00000C1D00009B
:1001C0000C1D00000C1D00000C1D00000C1D00008B
:1001D0000C1D00000C1D00000C1D00000C1D00007B
:1001E0000C1D00000C1D00000C1D00000C1D00006B
:1001F0000C1D00000C1D00000C1D00000C1D00005B
:10380000101D040000000000F61F0400000000006E
:10381000F61F040000000000CA1F040000000000A2
:10382000D01F040000000000F61F0400000000008C
:10383000F61F040000000000F61F04000000000056
:10384000F61F0400000000009C1F040000000000A0
:10385000F61F040000000000F61F04000000000036
:10386000F61F040000000000F61F04000000000026
:10387000F61F040000000000F61F04000000000016
:10388000F61F040000000000F61F04000000000006
:103890001A1E040000000000E01D040000000000EB
:1038A000661E040000000000D61F04000000000097
:1038B000F61F040000000000F61F040000000000D6
:1038C000F61F040000000000F61F040000000000C6
:1038D000F61F040000000000F61F040000000000B6
:1038E000F61F040000000000F61F040000000000A6
:1038F000F61F040000000000F61F04000000000096
:10390000F61F040000000000F61F04000000000085
:10391000F61F040000000000F61F04000000000075
:10392000F61F040000000000F61F04000000000065
:10393000F61F040000000000F61F04000000000055
:10394000F61F040000000000F61F04000000000045
:10395000F61F040000000000F61F04000000000035
:10396000F61F040000000000F61F04000000000025
:10397000F61F040000000000F61F04000000000015
:10398000F61F040000000000F61F04000000000005
:10399000F61F040000000000F61F040000000000F5
:1039A000F61F040000000000F61F040000000000E5
:1039B000F61F040000000000F61F040000000000D5
:1039C000F61F040000000000F61F040000000000C5
:1039D000F61F040000000000841E04000000000028
:1039E000F61F040000000000F61F040000000000A5
:1039F000F61F040000000000F61F04000000000095
:103A0000F61F040000000000F61F04000000000084
:103A1000F61F040000000000F61F04000000000074
:103A2000CF4224000EFF27000E0188000000000096
:103A30000C00070040DA2A00010020000F000700F8
:103A4000000020000000E000020032000000020040
:103A500000000000EA230200010000000040DA003C
:103A60000000FE00C0A222000000E00002003200C0
:103A7000002020009001880000000600A1028800BC
:103A8000800078000000EB001A003700E280400060
:103A900054A0B4009101BA00E280400054A0B400E8
:103AA0009102BA00E280400054A0B4000002EB0092
:103AB000472BDE00F507B200A6018800602CE1006C
:103AC00008003A000049EB000201E800020039005A
:103AD0003420EC0002F0A0008301E900F9FF3E0071
:103AE000040037006128E100010032000082EB0091
:103AF000040007001101BA000200E000E3FF3A00F1
:103B00000000060004D0A300E20F49001C003900A9
:103B1000810278003549BA000201E800020039004C
:103B20003420EC0002F0A0008301E9000F00320015
:103B30002549BA000201E800020039003420EC00F7
:103B400002F0A0008301E900080032000400E00058
:103B50000600320015C9BA000201E800020039006F
:103B60003420EC0002F0A0008301E9008180E8002D
:103B700054A0B4000300E000E2FF3A000000060099
:103B80009102BA00055978008301E900F7FF32007D
:103B9000C82ADE00055978008301E900F3FF3200EE
:103BA0000400E000F1FF320011D9BA00EEFF370047
:103BB0001633040001000000762704000100000015
:103BC0003600F800809FBE00829FBE00849FBE002A
:103BD000869FBE00889FBE008600A90020D380007B
:103BE000E00F50000C003200190020000000CF0050
:103BF0000004E9000800440041A4210061007800AD
:103C0000000001000848DD000080EA00641AB600E8
:103C100020D38800F5FF3A004F04BE004F03BE00DA
:103C20004F02BE004F01BE004F00BE003600F9003B
:103C300000400600809FBE00829FBE00849FBE00A1
:103C4000E838EC0081D8BF000488210014427800D5
:103C50000482FB0004024200013020000102420005
:103C6000810F52000E00320082C1B3000440BC003C
:103C70008188210001014100100020000130200056
:103C800025C4800080816200010032003119780073
:103C9000848F50000200320000004000F8FF37001F
:103CA0008158EC0081F8B700E44F500002003A0060
:103CB0008178EF008218A80085A0A9004F02BE00FD
:103CC0004F01BE004F00BE00004006003600F80065
:103CD000809FBE00829FBE00849FBE00869FBE0064
:103CE0008620A900409F2100689402000000000087
:103CF0004F03BE004F02BE004F01BE004F00BE008A
:103D00003600F900004006003600F800809FBE0033
:103D1000829FBE00849FBE00869FBE00889FBE001B
:103D20008A1F78003200F8000020200090018800EF
:103D3000D0C78000E10F500007003A0094C4AB00E8
:103D400005003A008AA4EF008C04A8008C84A80027
:103D500020002000D0C788008084AB00060032001D
:103D60008284AB000400320000012000002488009F
:103D7000EA2F0200010000008824AB00020032009C
:103D80008EC0A900630037008A04AB00090032002E
:103D90008C04AB000700320078F202000000000043
:103DA0009EC0A80040002000D0C78800100020005E
:103DB000502488008A84AB00060032008C84AB005B
:103DC00004003200082F0200010000000001200062
:103DD000502488008A44AB00100032008C44AB00B1
:103DE00005003200120020008000EB0030072000A8
:103DF000A229020001000000400020005024880099
:103E00001ED9BF00010032001E79ED001ED9BF008F
:103E100002003A0058130200010000008AE4AB00DF
:103E2000040032008CE4AB00020032007E29020064
:103E3000010000008A24AB000A0032008C24AB0091
:103E400008003200120020008000EB00F0FF270085
:103E5000A2290200010000008EA4EF002000200033
:103E600050248800D0C78000E30F500002003E00BD
:103E70008EC0A900270037008C64AB0024003200FC
:103E800050248000680060000044EB00890020009E
:103E90002A07200003003A001D0037008A64AB00A7
:103EA0001B003200912480008000FD0016F9B7004D
:103EB0008000FD0061912100914078008180FB002D
:103EC000C408DE008000FD0017F9B7008000FD0087
:103ED000592488007191210091407800E0CF500072
:103EE00003003A00C4090200010000000500370089
:103EF0000001EB00619121000A007800A229020074
:103F0000010000000844E800E34F5400E3FF3600DE
:103F10008EC0A9003200F9004F0578004F04BE00A2
:103F20004F03BE004F02BE004F01BE004F00BE0057
:103F30003600F90000400600809FBE00FF3FFC00F5
:103F40008460A90000D9800011D980006100400080
:103F5000E080480000D9880011D988000000FC00EA
:103F600020DBBF006300600008003A00FB7AEC0031
:103F7000FBDABF0005003A00C1AF21001100E800E4
:103F80008008780001003A00FE3AEC004F00BE00C5
:103F90000040060000000000000000000040060095
:103FA000000000000000000000400600809FBE00EE
:103FB0000010A9003906AB00080032000000EB0039
:103FC000310620000000E800810F5000FDFF3600A0
:103FD0003906AB00010032000010A8008640A9009D
:103FE0003926A9004F00BE00004006000040DA005C
:103FF0000000FE00800078001104B10003003500CD
:104000009101B10001003C000050A000000006003A
:104010000A00FA00889FBE008A9FBE0080017800D7
:104020008104780082057800E28F51003B003E0059
:104030000B057800E08F550040003200E881210038
:10404000F831020001000000E10F500003003A00C7
:10405000070037002CC202000000000008007800B2
:104060003E24020001000000E30F5000F9FF36007B
:1040700021822100914078008180FB003382210061
:1040800093417800C819DD0081817100E48121002D
:10409000144278000482FB00F181210091407800F5
:1040A000C808DD00848070001940780080F1780035
:1040B000E1812100914078008180FB00F3812100A3
:1040C00093417800C819DD00818171008301E80007
:1040D00044822100144278000482FB0051822100B6
:1040E00091407800C808DD00848070008180610004
:1040F0008000FD001EF8B7008000FD00C808DE004B
:104100008000FD001FF8B7008000FD000A05E900EF
:104110000A0032008904E800C9FF370072805700A6
:1041200031002000F1B79F0083BF9F0099BF9F001F
:10413000ABBF9F0000C0DA00AFBD97000B00780056
:104140004F05BE004F04BE000080FA0000000600CC
:104150000000FA0007E2A9009600A9009620A90035
:104160008600A9008620A9000080FA000000060051
:1041700002C2B300010037000000E8009040780060
:1041800082CF5000FCFF3200E9CF5000FAFF32002E
:10419000D2C2B30082CF500003003A000000E80012
:1041A00012C0B300050037000041EB00B3C2B300FA
:1041B00083CF500001003A000000E8008000EB00CF
:1041C000050037006A0AB90001FD2F008480400015
:1041D000838040000000E8009001FB0004FD2F00F8
:1041E00003024200E90F5200F6FF3600E04F510093
:1041F000010032008100EA000100780000000600A2
:10420000889FBE008A9FBE008004780000C2B30071
:1042100039447800804F5400FDFF3200E94F5400CC
:10422000FBFF3200D0C2B300804F540003003A00BD
:10423000394478001AC0B300050037000045EB0090
:10424000B0C2B300804F540001003A0039447800F6
:104250006000B8000BCDB30009003700A2002000B9
:1042600003002000E70507000B4144000281FB002A
:104270000300200002004000838048003944780099
:104280000881FB000203B100E90F5100F3FF360083
:10429000E04F55000200320060001000E08018007E
:1042A0004F05BE004F04BE0000000600889FBE0000
:1042B0008A9FBE008C9FBE00800678000204BE006C
:1042C000010578000200BE00CFD5DE0001003700F6
:1042D000820678000A01BE00B70507000D01E8005C
:1042E000E00F5000E08F5800F9FF3A000049EB0062
:1042F0000A01BE000800BE00BF05070000467800A6
:104300000A01BE000800BE00AB0507000004BE00A5
:10431000E94F5600010034006746460000C3B30071
:1043200080564600E00F5400E08F5C00F0FF3A003A
:104330000D0078004F06BE004F05BE004F04BE00C2
:1043400000000600E4874700889FBE008A9FBE00E9
:104350008C9FBE008E1F780041C12300A2E0810027
:10436000E00F51000B003A0064814000A2E0890098
:10437000F2E08900A1009800E1E08900214190006D
:104380000204A000A2409800614190000204A00035
:10439000E2409800670440004244DE004244DD00F1
:1043A000E1E081000002EB00CEC22300C9422400FC
:1043B0008E8454006400440080BF9F00614EB900A9
:1043C000010037008B007800214090006100600000
:1043D000020032000A00370093087800910178004B
:1043E0002340900061006000FBFF32000881400024
:1043F000828F510002003900E00F540054003D004C
:1044000091057800818F5500EEFF3E008E8F55009C
:104410000300390040C12300808F5500E9FF3900B7
:10442000F0E08100808F50005A003A0040C1230024
:10443000808F550057003A000402E800E10F520057
:10444000E0FF360022002000811F780011000900E3
:104450008204D800CF007800800F54000500360099
:10446000890F5400030031000885E8000A05450063
:10447000140037006142B800B2FF2F000300200093
:104480000C0151008D815900820F5200838F5A0018
:104490000B003D00F24224000E01510008014100D2
:1044A000809FBE00110009000981D800000178003A
:1044B0004F00BE000991B9000205780001003700E5
:1044C000080578000A00780019050700E10F400090
:1044D00005003A000FBD97000A0078001405070098
:1044E000E10F40002B003200F1E0810080087800ED
:1044F000F1E08100E481400021419000830F5000F1
:10450000020032000204A000010037000204A100F2
:10451000A2409800640555000A0540000A0878008A
:10452000FAE0890041C12300010D7800F2E081002A
:10453000A24090000104A00021419800A0409000FA
:104540000104A100214098000002EB009DFF37000C
:10455000E2E08900828F5100070036001202BE009F
:1045600004E1890015E18900110978000040EB00A1
:10457000E2E0810020419800E5E0810085087800B4
:10458000214090000004A000A040980064804000FA
:10459000010037000000EB004F0778004F06BE0017
:1045A0004F05BE004F04BE004F00B10000000600E2
:1045B000E68747008E1F7800D0BF9F0066875700B0
:1045C000012F78000E003700DFB997001341780003
:1045D0006FB8970090407800814F5100040032007E
:1045E0000280FB008180FB000100500008003700C2
:1045F0008301E800D3BF9F00000FE80004017800AA
:104600000202E900E00F5100EFFF3A0002007800DB
:104610004F0778006F00B1000000060080017800AD
:1046200002003700B1597800040178000202E90065
:10463000E00F5100FBFF3A00000006008001780007
:104640000200370081597800040178000202E90075
:10465000E00F5100FBFF3A00000006001041780017
:10466000814F510005003200E04F5100020032003E
:104670000000E800F9FF37000000EB000000060032
:104680009041780031C1510004003A00E0CF510060
:10469000020032000000E800F9FF37000200FB00D2
:1046A00000000600800078000041EB00B14F1100CF
:1046B000FDFF3A000080EA00008040000000060094
:1046C000889FBE000004BE000B0037000900780080
:1046D000F4FF0700000178000800BE004104070055
:1046E000E00F50000A0032000800E8009900FB00CB
:1046F000DAFF070000047800E00F540004003200E5
:104700000040EB00984F1000F0FF3A000004EB006F
:10471000080078004F04BE00000006000C00FA00FC
:10472000889FBE0000047800F0FF2700D0BF9F00E4
:104730008004EB0099BF9F0088BF9F00A8BF9F0027
:10474000200C2000B0BF9F0078815700CFB09700A9
:1047500070805700070007000FB8970009487800DD
:104760008FB89700088050004F04BE000080FA0008
:10477000000006000F04B000889FBE008A9FBE00A4
:104780008C9FBE008E1F7800C0B79F00D1AF9F00E6
:10479000A2B79F000000EB00C0033700DFA897001E
:1047A0008100E800D1AF9F0052C2B30082CF520017
:1047B00006003A000007EB0006C3B30003C2B300D3
:1047C000B1C2B3005FA8970014003700CFB19700C3
:1047D000330190000204B2000500320003027800A9
:1047E0009401780085497800030AE8000700370043
:1047F0000501FB00CFB0970002007800B40307006A
:1048000000017800E10F4100A5033200BFB297001C
:104810008502E800B5B79F00A103370090427800F9
:10482000D7C2B30087CF52000B0032000001E8006E
:1048300087CF520005003C0083CF520009003200B0
:1048400081CF52000E003A000800370086CF520098
:104850000B003A00070037000E30A0000000E8000F
:10486000EEFF37000E00A000030037000E10A0007E
:10487000010037000E20A00002007800E7FF37009B
:10488000D0AF9F00E2016700010032000E00A100DE
:10489000E8016700010032000E20A1008501FB0045
:1048A0000303B100E98F51000D003E00000020001D
:1048B0005FA997006A00B9000003B1009200FB00F5
:1048C00001004000D200FB000103B100E98F50005D
:1048D000F8FF3600C0AF9F00D2AF9F000C0037003A
:1048E0008004EB00C9AF9F00A3C2B30083CF520086
:1048F00007003A002FB59700CA057800AAB79F00B5
:10490000CBAF9F005FA897000000E800D0AF9F00EA
:104910008000EB00E1AF9F00E3C2B3005FA9970006
:1049200092CF11001E003A000EE0A000E4C1510039
:104930000201E800D2AF9F0012427800834F52007C
:104940000D003A00AFB2970045037800A5B79F006D
:10495000E6AF9F00820378008703E8000701780034
:10496000100037006A00B9000003B10002004000E7
:104970008301E800020037006FA89700DFA99700C5
:104980001301FB0001FD2F0082804000E98F5000E1
:10499000F4FF3600E0AF9F0003017800010037000C
:1049A0005FA9970032427800C4779F00C8C6B30061
:1049B000884F520023003200D2AF9F000F003C000E
:1049C00035C6B300854F5200A700320004003C00FA
:1049D000E04F52003703320083C5B3000F003700A9
:1049E00043C6B300834F5200C4003200E5C141000A
:1049F000834F5200BA003A00C000370035C7B300F9
:104A0000854F52001A00320007003C00F3C6B30085
:104A1000834F5200110032008341E800834F52005F
:104A2000AF003A000F00370053C7B300834F520066
:104A3000B1003200E3C14100834F5200A8003A00A8
:104A400009003700700067000100280001003A00EB
:104A50000101200001077700D2FF37000E60A0009F
:104A6000A60037000E50A0000E70A000A300370073
:104A7000AFB49700C9027800A9B79F00D5B79F00CF
:104A8000E08F520002003A00CBC02300DBB79F004A
:104A90000000EB00E0B79F005FB09700EFB0970019
:104AA0007FB197008FB99700010037008500E800BB
:104AB0008102780061427800E04F5200FBFF3A002B
:104AC000D0B79F00E1B79F00F2B79F0083BF9F0060
:104AD000EFAA9700E08F5200050032006FB39700F5
:104AE000868F52000200310085037800E7B79F00EF
:104AF000EFB297000006EB004FAC9700850F540013
:104B00000100360005065400680767002F003A00D0
:104B10008C01780008C2B300CFB6970010003700B0
:104B20003D0090000004B200040032001D00780037
:104B300008487800800EE800050037008D007800F6
:104B400000022000E2020700E10F400003003200F3
:104B5000BFB497008904E800B9B79F008C017800C2
:104B60000C06E900E08F5100EDFF3A001700370016
:104B70003D0090000004B200090032009D01780061
:104B8000080178003240780080497800830EE80000
:104B900002047800E04F500008003A00100037008F
:104BA000080178003200FB00020478008D007800D4
:104BB000C7020700E10F4000090032003FB0970034
:104BC0000000E800B0B79F00050037005FB4970011
:104BD000EFB497007FB597008FBD9700CFB69700D1
:104BE000090078008004E900E00F5000E0FF3A007F
:104BF000D8B79F00E9B79F00FAB79F008BBF9F000F
:104C0000E00F5700A6023200110037003800900074
:104C10000004B20004003200180078000D4878004B
:104C2000000CE80005003700880078000002200032
:104C3000A7020700E10F400003003200BFB2970057
:104C40008502E800B5B79F000E0678000200370025
:104C50000DC2B3004FB497000C07E900E00F5600F7
:104C6000EAFF3A008E0237002FB39700460478001F
:104C7000A6B79F00CFC4DE00090578008A0578003A
:104C80000802BE000A03BE004822DE004828DD00FC
:104C900004027000C4779F007006670009003200AC
:104CA000E04F520007003200E14F420005003200A1
:104CB000D4779F00E8779F0021002000E1B79F0094
:104CC00003003700D8779F0012002000E2B79F0052
:104CD00053FB2F0083814700D3B79F007CFF370031
:104CE00044FB2F0004824700D4B79F00150020002A
:104CF000E5B79F0076FF37000E0CB3000E0078007A
:104D0000000CB2003B003A00E00F570005003D00E8
:104D10002FB097004005BE004004BE00A0B79F0022
:104D20000F00370070006700120032002FB29700AA
:104D30004401BE00A4B79F00E29F9F00F39F9F0025
:104D4000140090004F80DE0080A79F0090A79F0076
:104D50006F9C9700FF9C97000FA597009FA5970059
:104D6000D8B79F00E9B79F00FAB79F008BBF9F009D
:104D70000B003700AFB4970049027800A9B79F0035
:104D800004007800CF80DE00010178008201780005
:104D9000D0B79F00E1B79F00F2B79F0083BF9F008D
:104DA0005FB29700EFB297007FB397008FBB970079
:104DB000E00F5200E08F5A00E00F5B00E08F5B00D5
:104DC00032003D003E00B3006022B8006033B800FE
:104DD0005FB49700EFB497007FB597008FBD970041
:104DE0000804520089845A000A055B008B855B0029
:104DF00022003700E00F570005003D002FB297005A
:104E00004401BE004400BE00A4B79F000F0037005D
:104E100070006700120032002FB497004803BE00F4
:104E2000A8B79F00E6A79F00F7A79F008004EB00AC
:104E300089AF9F000005EB009AAF9F006FA097001D
:104E4000FFA097000FA997009FA99700D0B79F00D8
:104E5000E1B79F00F2B79F0083BF9F000B003700B0
:104E6000AFB0970041027800A1B79F00040478001A
:104E7000090020000A0020000B002000D8B79F0086
:104E8000E9B79F00FAB79F008BBF9F00EFAC970078
:104E9000E08F54000D003A001A002000EAAF9F0096
:104EA0005FB09700EFB097007FB197008FB9970080
:104EB000E00F5000E08F5800E00F5900E08F5900DC
:104EC000020032008000EB00E1AF9F000E0178008D
:104ED000020CB200B2AF9F0005042000850F510004
:104EE0003F00320003003C00E00F51000800320098
:104EF0005600370004082000BFA99700848F510096
:104F00001B003200040C2000848F51004F003A0037
:104F100013C0B300C3779F00A1B423001000370073
:104F20000200FB004300DD00008040003002BE00B4
:104F30002003BE005FB49700EFB497007FB59700E1
:104F40008FBD97000440E10005C8E10006D0E100F4
:104F500007D8E1003D0039000241E800C2779F0018
:104F60004F719700F44F5100EDFF3A0037003700C2
:104F700013C0B300C3779F00040120000500200088
:104F80006033B800120037005FB49700EFB49700A9
:104F90007FB597008FBD97000440E10005C8E10090
:104FA00006D0E10007D8E1002800390049002000C0
:104FB0000402D0008582D2000683D2008783D2000B
:104FC0008904E900FAFF3A000040E800C0779F003A
:104FD0004F709700F04F5000EBFF3A001B00370076
:104FE00013C0B300C3779F00840020000500200099
:104FF0006033B800120037005FB49700EFB4970039
:105000007FB597008FBD97000440E10005C8E1001F
:1050100006D0E10007D8E1000C003900390020007B
:105020000402D0008582D2000683D2008783D2009A
:105030008904E900FAFF3A000040E800C0779F00C9
:105040004F709700F54F5000EBFF3A004F759700F7
:105050008A02FB00EFAD97008B8F520002003D00EB
:10506000CB779F00040037006FA89700850F500092
:1050700001003D00E5AF9F00CFA89700E08F5000F2
:105080000400320063026700020032008100E90080
:10509000C1AF9F0004002400040267000900320031
:1050A0004FA99700EFA99700830F51000300340028
:1050B00003015100C2AF9F00020037000002EB0065
:1050C000C4AF9F004F7397008602FB008003EB0084
:1050D000A7AF9F004FAC9700850F5400020034002B
:1050E00085025400A5AF9F00640267004C003200A7
:1050F000E202670061036700E08F52001B0032008C
:10510000CFB49700390290000404B20009003200C5
:1051100099037800B5C2B300E00F530001003200DC
:1051200085C2E800854B78004FB59700070DE80071
:105130000A003700D5022000E00F530001003A00BA
:105140008582E900CFB09700050078006001070074
:1051500000027800E10F420018003200BFB597004E
:105160008B05E800BBB79F0014003700E00F530029
:10517000120032004FB09700300290000404B200D9
:10518000050032009002780003C2B300834A780021
:105190000508E80006003700CFB0970000022000A5
:1051A0004B01070000027800E10F420003003200CB
:1051B000BFB097008100E800B1B79F002FA997000A
:1051C000E00F51001101320008C3B30082067800DD
:1051D0004FB697003C0090000004B200040032007B
:1051E0001C00780008487800000EE8000500370031
:1051F0008C0078000003200035010700E10F40001B
:1052000003003200BFB197008301E800B3B79F00ED
:105210008D06E900EFFF3A00ADAF9F00FB003700BD
:105220002FAA9700E00F52001700320068026700B3
:1052300015003A0008C2B300AFAE97004FB6970012
:105240003C0090000004B200040032001C00780012
:1052500008487800000EE800050037008C00780050
:10526000000220001A010700E10F40000300320095
:10527000BFB297008502E800B5B79F008D06E90030
:10528000EFFF3A00ADAF9F00E202670061036700E5
:10529000E08F52001C003200CFB39700370290001D
:1052A0000404B2000A003200070478009803780072
:1052B000B5C2B300E00F53000100320085C2E80020
:1052C000854B7800CFB49700870CE8000A003700C0
:1052D000D5022000E00F530001003A008582E9006A
:1052E000CFB0970005007800F900070000027800B1
:1052F000E10F4200C50032003FB597000A05E80003
:10530000BAB79F00C1003700E00F5300BF00320062
:10531000CFB597003B0290000404B20005003200B4
:105320009B02780003C2B300834A7800850DE80031
:1053300006003700CFB0970000022000E40007000D
:1053400000027800E10F4200B00032003FB0970049
:105350000000E800B0B79F00AC0037000E07E9007E
:1053600000042000BFA89700808F50008200320008
:1053700003003C00E08F5000080032008E00370030
:10538000000820003FA99700800F510065003200FF
:10539000000C2000800F510087003A004370DD00B0
:1053A000CFA99700E08F51002A003D00A4B423004C
:1053B000000042003004BE002005BE00E8AF9F00A0
:1053C000F9AF9F008AB79F009BB79F000802BE00FD
:1053D0000A03BE005FB09700EFB097007FB197005F
:1053E0008FB997001B020700C0779F000004FB00E5
:1053F000CFC4DE00090578008A0578006FAA9700FF
:10540000FFAA97000FB397009FB397000800BE0054
:105410000A01BE00160207000203BE000002BE0021
:105420005FB09700EFB097007FB197008FB99700FA
:1054300004005000858058000601590087815900FA
:10544000D0B79F00E1B79F00F2B79F0083BF9F00D6
:1054500030003700DF989700E08F50001F003200C7
:105460005FB69700EFB69700A2B42300000041009A
:105470003004BE002005BE000801BE000C00BE00C6
:105480004D010700C0779F000000FB00CF80DE00C9
:105490000801BE005B0107000002560081825E0029
:1054A000A4A79F00B5A79F008002EB00C5A79F009F
:1054B0000003EB00D6A79F002FA49700BFA497007E
:1054C0004FA59700DFA59700D8B79F00E9B79F00C9
:1054D000FAB79F008BBF9F000E003700A9B42300CE
:1054E000690178005FB59700811F780011000900FD
:1054F0000285D800CF007800A2002000811F78002C
:10550000110009000280D80001007800CF00780067
:10551000C0779F00CF7597000B43B000CB779F00FB
:1055200025003700A4BE23004F989700E00F5000DD
:1055300001003A00B4BF23004270DD005FB4970061
:10554000EFB497007FB597008FBD97008002780079
:105550008502E900050033008B05D1000A85D300E0
:105560008984D3000884D300F9FF37006F006400FA
:10557000644078000F0037006370B9005FB4970093
:10558000EFB497007FB597008FBD970000027800B9
:105590000402E900050033008B05D1000A85D30021
:1055A0008984D3000884D300F9FF37006740640082
:1055B0000043B000C0779F00CFB297003500900045
:1055C0000004B20007003200150178004F70970008
:1055D00000497800820AE800E04F500007003A00D6
:1055E000120037004F7397000600FB00CFB0970002
:1055F00037000700E10F40000C003200BFB39700F6
:105600008703E800B7B79F00080037007004670001
:10561000D89F9F008E0478000902B200C99F9F00A6
:105620000E057800CAAF9F006FAF9700E00F5700DC
:105630004AFF3A004FAF9700680167001800320038
:10564000AFAD9700E08F55001500340008C2B300DD
:105650008B0678003FB797004FB697003C0090004C
:105660000004B200040032001C00780008487800F2
:10567000000EE800050037008C00780000022000D2
:1056800013000700E10F4000010032000E07E800A0
:105690008D06E900F1FF3A000E007800B0B79F00D8
:1056A000DFA8970091427800C5779F00E0CF5200B5
:1056B0003AFC3A003FB097004F0778004F06BE0013
:1056C0004F05BE004F04BE000F04B10000000600ED
:1056D000889FBE0001047800B800900062816000DD
:1056E0008084EB003C003200810178000320B2008E
:1056F0001801900002003A00E00F510036003A0015
:105700000190A0003104980080047800F90FB200E5
:10571000E00F510002003A0028009000000C7800D1
:10572000EA8F540006003A00010078000008B20039
:1057300003003A0088007800D0002000E4FF070052
:1057400018009000D8009000810F50000B0032002C
:105750000000E8001004980018007800094878005C
:10576000000CE80010C0B30041C22300804878005C
:10577000EA8F540018003A000500370088007800CE
:10578000094078002A0007008004780012003700E2
:10579000380090000010B2000F0032001801900095
:1057A000A80090004800900019FA070098009000A7
:1057B000810F500004003200380090000003B30055
:1057C000300498008084EB000000EB001004980087
:1057D00028009000000C7800090078004F04BE00FB
:1057E000000006000D00370010417800E04F510026
:1057F00002003200914F5100050032000281FB008F
:10580000914078000180FB0000005100000006007C
:105810000000E8008100E800030178008201E9004F
:10582000E00F5100F0FF3A0002007800000006008F
:105830000200FA00889FBE00A0FF9F0001047800CC
:1058400038009000800078000104B20033003A0074
:10585000E200600005003A000003B3003004980045
:10586000110498000080EB002E003700D80490004F
:10587000E08F540006003A0012002000E680570036
:1058800048009000E2F9070019049800230037004F
:10589000A8009000E08F500008003A0071C2230079
:1058A00021049800010C7800210020005104980088
:1058B000110498000030A0003004980018019000F6
:1058C000A800900048009000D1F90700280090003F
:1058D0008080EB0011049800AFF897000148780031
:1058E000000CE8002FF89700EA4F50000B003A0038
:1058F000380090000010B20008003200180190003B
:10590000A800900048009000C1F907000000EB00DB
:1059100010049800A8009000010C7800AFF89700E0
:105920000100FB004F04BE000080FA0000000600EA
:10593000889FBE008004780050E18100E00F500095
:1059400004003A000E0007000084EB00E00F500056
:105950000800350058E18100E08F54000500320056
:105960000900440006000700E00F500001003D0060
:105970000084EB00080078004F04BE000000060021
:10598000E00F500004003A00C1C2230051E1890039
:1059900080007800060037008080EB00C2422400BF
:1059A000820F500002003E0050E189008000EB00B1
:1059B00001007800000006006022B8000602200006
:1059C0000000D0008180D2000482D2008582D20003
:1059D0000000A0000202520083825A00030031003E
:1059E0000202420083824A000000A1000603E9008F
:1059F000F3FF3A0000000600EFFF07000400BE00BE
:105A000000000600020AB900001BB9000200B8003D
:105A1000810042008100430000000600889FBE0014
:105A20008A9FBE003004BE002005BE00040444006E
:105A300085844C0006054D0087854D000898BE0002
:105A40000A90BE000440E10005C8E10006D0E10074
:105A500007D8E10002003100680040001008E800AB
:105A60004F05BE004F04BE0000000600889FBE0028
:105A70008A9FBE008C1F7800000678003C04BE00A0
:105A80002C05BE000400540085805C0006015D000A
:105A900087815D00009EBE00029EBE0010002000B7
:105AA0000440E10005C8E10006D0E10007D8E100AC
:105AB000010039000000EB001C0E10004F067800BA
:105AC0004F05BE004F04BE00000006001200FA00A1
:105AD000889FBE008A9FBE008C9FBE000205BE004C
:105AE0000004BE00E4B79F00F5B79F0086BF9F008B
:105AF00097BF9F000000EB00D0B79F00C0B79F008A
:105B0000B0B79F00A0B79F0090B79F000006780035
:105B1000FD032000DFB197004FB0970003814100E3
:105B2000BFB09700E08F510004003D00290007003E
:105B30007E805700B9FF07000300370025000700EB
:105B40007E805700C9FF0700DFB09700E08F50004C
:105B50000700350014002000050020006033B80065
:105B600008047200898472000A0573008B85730033
:105B70000C06E8008D0F5600E6FF3400E08F500061
:105B800006003D006FB29700FFB297000FBB970071
:105B90009FBB97007E805700A0FF07005FA897007B
:105BA000E00F500004003A001FB49700AFB4970014
:105BB0003FB59700CFB597000800BE000A01BE00B0
:105BC0004F06BE004F05BE004F04BE000080FA0025
:105BD00000000600CF01DE0002817100B2B79F0015
:105BE0004F09DE000000400000007100A0B79F00D8
:105BF0000FB097004F01DE008180400081007100EE
:105C000091B79F007FAA9700CF20DE0000004000E0
:105C10000080700080B79F000800BE000A01BE002F
:105C20004F18DE000402420000027200F4AF9F0031
:105C30000804440089844C000A054D008B854D0002
:105C40004FB29700DFB297006FB39700FFB3970092
:105C500000000600881F780018002000881F7800C8
:105C60009AFF07008F87E9004F04780000000600C4
:105C7000889FBE008A9FBE008C1F78000006EB0044
:105C8000E00F5000E08F5800E00F5900E08F5900FE
:105C900007003D006044B8006055B80000005400A3
:105CA00081805C0002015D0083815D001C0020009A
:105CB000E00F5200E08F5A00E00F5B00E08F5B00C6
:105CC00007003D006044B8006055B800040254006D
:105CD00085825C0006035D0087835D000C00A200E6
:105CE0000C000700E00F5600060032006022B800EA
:105CF0006033B8000000520081805A0002015B004E
:105D000083815B004F0678004F05BE004F04BE0044
:105D100000000600889FBE008A9FBE008C9FBE00C8
:105D20000404B8000506B8008904460060854E00EA
:105D30000606B8000A054600E0854E000706B800D2
:105D40008B054600040EB800890446000A854E0003
:105D5000E0854D00050EB8000A0546008B854E0013
:105D6000060EB8008B0546000416B8000A0546006A
:105D70008B854E000516B8008B054600041EB80042
:105D80008B0546000800BE000A01BE004F06BE009B
:105D90004F05BE004F04BE00000006000A48000088
:105DA00054540000503200003A20000046490000E0
:105DB000464F0000204F000076650000726600002C
:105DC0006C6F000077330000002000002D200000E1
:105DD00046690000726D0000776100007265000086
:105DE00020550000706C00006F610000640000002E
:105DF000202D0000205700006562000020500000A8
:105E00006167000065200000557000006C6F0000A5
:105E100061640000000A0000556E00006B6E000017
:105E20006F770000204300006F6E00007465000073
:105E30006E7400002D5400007970000065000000B1
:105E40000D0A00000D0A0000004D00005046000041
:105E500053020000010000000A48000054540000F2
:105E6000503200003A2000005665000072730000B6
:105E7000696F00006E20000045520000524F000084
:105E8000520000000A5200006563000065690000CE
:105E900076650000643A0000200000000A4C000013
:105EA000696E000065200000746F00006F20000024
:105EB0006C6F00006E670000000A0000202D0000DB
:105EC00020450000727200003A2000004C6500007E
:105ED0006E67000074680000203C00002031000064
:105EE000310000000A2000002D2000004572000053
:105EF000723A0000204E00006F2000003A000000BF
:105F00000A2000002D200000436800006B73000091
:105F1000756D0000204500007272000000750000E1
:105F2000706C00006F610000646600006972000020
:105F30006D2E0000687400006D0000000A4800002B
:105F400054540000503200003A200000496E000016
:105F5000766C000064200000466900006C6500005B
:105F6000000A00004E6F0000207300007061000006
:105F700063650000206600006F720000205400007E
:105F80006167000021000000214400004546000038
:105F9000000A00004854000054500000323A00004B
:105FA00020460000494600004F2000004F760000C8
:105FB00065720000666C00006F7700003100000021
:105FC0000A48000054540000503200003A200000FB
:105FD000546900006D6500006F75000074310000A9
:105FE0000047000045540000005000004F530000DF
:105FF000540000000A4800005454000050320000D1
:106000003A200000556E0000726300006E7A0000B6
:10601000642000004D74000068640000000A000065
:106020004854000054500000323A0000204600005E
:10603000696C0000656E0000616D00006520000065
:10604000746F00006F2000006C6F00006E6700002E
:10605000006D00007066000073750000706C000039
:106060006F61000064000000696E0000646500005C
:10607000782E0000687400006D0000000A480000DF
:1060800054540000503200003A20000046490000FD
:10609000464F0000204F0000766500007266000049
:1060A0006C6F000077320000000A000048540000C6
:1060B00054500000323A000020540000696D000086
:1060C000656F000075740000320000000A4800008F
:1060D00054540000503200003A200000556E000079
:1060E00061750000746800006F720000697A00003A
:1060F00065640000000A000048540000545000008D
:10610000323A000020540000696D0000656F000005
:1061100075740000330000000A4800005454000069
:10612000503200003A2000004E6F00002042000074
:106130007566000066650000722000005370000064
:1061400061630000652000006C650000667400005B
:106150002E0000002042000079740000654300001A
:106160006F7500006E7400003D00000020630000A9
:10617000616C00006C620000616300006B50000005
:106180006F7300003D0000000D0A00000D0A0000C2
:1061900033300000342000005265000064690000C4
:1061A00072650000637400003A20000000430000A4
:1061B0006F6E0000746500006E7400002D540000C6
:1061C00079700000653A000020000000436F000075
:1061D0006E740000656E0000742D0000456E0000B6
:1061E000636F0000646900006E6700003A200000E1
:1061F000677A0000697000000D0A0000004300008B
:1062000061630000686500002D4300006F6E0000B0
:10621000747200006F6C00003A200000006E0000F5
:106220006F2D0000636100006368000065000000DE
:106230006D610000782D000061670000653D000081
:10624000003600003030000000530000657400008C
:106250002D4300006F6F00006B690000653A00007D
:1062600020000000747800007400000068740000D2
:106270006D000000687400006D6C00000063000099
:1062800067690000007800006D6C0000006300008A
:106290007373000000670000696600000070000072
:1062A0006E670000006A0000706700000063000075
:1062B0006C610000007700006176000000000000C3
:1062C000000000000000000032B1000036B1000004
:1062D0003AB100003FB1000043B1000047B10000F7
:1062E0004BB100004FB1000053B1000057B10000A6
:1062F0005BB100005FB10000436F00006F6B0000F6
:10630000696500003A0000004175000074680000F3
:106310006F720000697A000061740000696F00000C
:106320006E3A0000004300006F6E000074650000CC
:106330006E7400002D4C0000656E00006774000054
:10634000683A0000004300006F6E000074650000B2
:106350006E7400002D54000079700000653A000052
:10636000000000007CB1000084B1000093B1000087
:10637000A3B1000048540000545000002F31000029
:106380002E3100002032000030300000204F00008D
:106390004B0D00000A4300006F6E00006E650000A8
:1063A00063740000696F00006E3A00002063000013
:1063B0006C6F0000736500000D0A000000480000CB
:1063C00054540000502F0000312E000031200000F6
:1063D00034300000302000004261000064200000E2
:1063E000526500007175000065730000740D0000B7
:1063F0000A4300006F6E00006E65000063740000C9
:10640000696F00006E3A0000206300006C6F0000AE
:10641000736500000D0A00000D0A00003430000012
:10642000302000004261000064200000526500003E
:106430007175000065730000743A0000206300006D
:10644000616E00002774000020680000616E00008B
:10645000646C000065200000436F00006E74000053
:10646000656E0000742D00004C6500006E67000032
:10647000746800000D0A0000004800005454000039
:10648000502F0000312E0000312000003430000079
:1064900031200000556E0000617500007468000036
:1064A0006F720000697A0000656400000D0A000048
:1064B00057570000572D0000417500007468000018
:1064C000656E00007469000063610000746500007F
:1064D0003A20000042610000736900006320000060
:1064E00072650000616C00006D3D000022500000EC
:1064F000726F000074650000637400006564000042
:10650000220D00000A4300006F6E00006E6500005F
:1065100063740000696F00006E3A000020630000A1
:106520006C6F0000736500000D0A00000D0A00008A
:106530003430000031200000556E0000617500000D
:10654000746800006F720000697A000065640000E2
:106550003A2000005061000073730000776F000064
:10656000726400002072000065710000756900000F
:1065700072650000640D00000A000000485400002D
:10658000545000002F3100002E3100002034000054
:1065900030340000204E00006F74000020660000C0
:1065A0006F7500006E6400000D0A0000436F00006C
:1065B0006E6E000065630000746900006F6E00007D
:1065C0003A200000636C00006F730000650D00004E
:1065D0000A4300006F6E0000746500006E740000D6
:1065E0002D54000079700000653A0000207400000E
:1065F00065780000742F0000687400006D6C000066
:106600000D0A00000D0A000034300000343A00008A
:1066100020460000696C0000652000006E6F0000DD
:1066200074200000666F0000756E0000643C00007E
:10663000627200003E55000073650000203C0000BF
:106640006120000068720000656600003D220000C5
:106650002F6D00007066000073750000706C000004
:106660006F610000642200003E4D000050460000B3
:1066700053200000557000006C6F00006164000042
:106680003C2F0000613E0000207400006F200000DD
:10669000707200006F670000726100006D200000E2
:1066A00077650000622000007061000067650000EF
:1066B000730D00000A000000485400005450000010
:1066C0002F3100002E310000203400003134000052
:1066D00020520000657100007565000073740000B1
:1066E0002D55000052490000205400006F6F00003B
:1066F000204C00006F6E0000670D00000A43000090
:106700006F6E00006E65000063740000696F00002A
:106710006E3A0000206300006C6F0000736500009B
:106720000D0A00000D0A0000343100003420000082
:10673000526500007175000065730000742D000043
:106740005552000049200000546F00006F200000E7
:106750004C6F00006E6700003A2000004275000098
:106760006666000065720000206F0000766500001C
:10677000726600006C6F0000772000006465000006
:106780007465000063740000656400000D0A000079
:106790000048000054540000502F0000312E00002B
:1067A000312000003530000030200000496E00002C
:1067B00074650000726E0000616C000020530000E0
:1067C00065720000766500007220000045720000CE
:1067D000726F0000720D00000A4300006F6E00002F
:1067E0006E65000063740000696F00006E3A00007F
:1067F000206300006C6F0000736500000D0A00004C
:106800000D0A00003530000030200000496E000005
:1068100074650000726E0000616C0000205300007F
:10682000657200007665000072200000457200006D
:10683000726F0000723A000020450000787000007E
:10684000656300007465000064200000646100005E
:1068500074610000206E00006F7400002070000062
:1068600072650000736500006E7400000D0A000080
:106870000048000054540000502F0000312E00004A
:106880003120000035300000312000004E6F000044
:1068900074200000496D0000706C0000656D000000
:1068A000656E000074650000640D00000A4300007E
:1068B0006F6E00006E65000063740000696F000079
:1068C0006E3A0000206300006C6F000073650000EA
:1068D0000D0A00000D0A00003530000031200000D4
:1068E0004E6F000074200000496D0000706C0000C5
:1068F000656D0000656E000074650000643A00007C
:10690000204F00006E6C0000792000004745000019
:1069100054200000616E000064200000504F000011
:10692000535400002073000075700000706F000069
:1069300072740000656400000D0A00000048000049
:1069400054540000502F0000312E00003120000070
:1069500032300000302000004F4B00000D0A0000D4
:10696000436F00006E6E00006563000074690000F4
:106970006F6E00003A200000636C00006F7300002F
:10698000650D00000A4300006F6E00007465000092
:106990006E7400002D54000079700000653A00000C
:1069A0002074000065780000742F000068740000F7
:1069B0006D6C00000D0A00000D0A00003C6800002C
:1069C000746D00006C3E00003C6200006F640000CB
:1069D0007920000073740000796C0000653D0000B0
:1069E000226D000061720000676900006E3A0000CD
:1069F0003130000030700000782200003E3C000082
:106A0000666F0000726D0000206D0000657400006C
:106A1000686F0000643D0000706F00007374000038
:106A20002061000063740000696F00006E3D00008B
:106A3000222F00006D70000066730000757000006A
:106A40006C6F00006164000022200000656E000091
:106A50006374000079700000653D0000226D000045
:106A6000756C0000746900007061000072740000B1
:106A70002F6600006F7200006D2D00006461000041
:106A800074610000223E00003C6200003E4D0000A8
:106A90005046000053200000496D0000616700006F
:106AA00065200000557000006C6F000061640000FC
:106AB0003C2F0000623E00003C7000003E3C0000A5
:106AC000696E000070750000742000007479000089
:106AD000706500003D660000696C000065200000E4
:106AE0006E6100006D6500003D69000020730000CC
:106AF000697A0000653D0000343000003E2000004F
:106B0000266E000062730000703B0000203C000015
:106B1000696E000070750000742000007479000038
:106B2000706500003D730000756200006D69000033
:106B300074200000766100006C750000653D000067
:106B400022550000706C00006F610000642200009C
:106B50003E3C00002F6600006F7200006D3E00009A
:106B60003C2F0000626F0000647900003E3C000092
:106B70002F680000746D00006C3E000000000000F3
:106B800048540000545000002F3100002E31000006
:106B90002032000030300000204F00004B0D00007C
:106BA0000A4300006F6E00006E6500006374000011
:106BB000696F00006E3A0000206300006C6F0000F7
:106BC000736500000D0A0000436F00006E74000042
:106BD000656E0000742D000054790000706500009F
:106BE0003A20000074650000787400002F680000EF
:106BF000746D00006C0D00000A0D00000A3C0000DE
:106C0000687400006D6C00003E3C0000626F000084
:106C10006479000020730000747900006C65000046
:106C20003D2200006D61000072670000696E000087
:106C30003A3100003030000070780000223E000041
:106C40003C6200003E4D0000504600005320000012
:106C5000557000006461000074650000205300005E
:106C600075630000636500007373000066750000C3
:106C70006C3C00002F6200003E3C0000703E0000B3
:106C80003C6100002068000072650000663D000065
:106C9000222F0000223E00005369000074650000AE
:106CA000206D0000616900006E200000706100002E
:106CB000676500003C2F0000613E00003C2F000093
:106CC000626F0000647900003E3C00002F68000005
:106CD000746D00006C3E0000004800005454000039
:106CE000502F0000312E0000312000003530000010
:106CF00030200000496E000074650000726E0000D4
:106D0000616C000020530000657200007665000091
:106D10007220000045720000726F0000720D0000CA
:106D20000A4300006F6E00006E650000637400008F
:106D3000696F00006E3A0000206300006C6F000075
:106D4000736500000D0A0000436F00006E740000C0
:106D5000656E0000742D000054790000706500001D
:106D60003A20000074650000787400002F6800006D
:106D7000746D00006C0D00000A0D00000A3C00005C
:106D8000687400006D6C00003E3C0000626F000003
:106D90006479000020730000747900006C650000C5
:106DA0003D2200006D61000072670000696E000006
:106DB0003A3100003030000070780000223E0000C0
:106DC0003C6200003E4D0000504600005320000091
:106DD000496D00006167000065200000436F0000FE
:106DE0007272000075700000742000006F72000065
:106DF00020570000726F00006E67000020560000F0
:106E000065720000736900006F6E00003C2F000087
:106E1000623E00003C7000003E3C00002F6200001B
:106E20006F640000793E00003C2F00006874000091
:106E30006D6C00003E0000004854000054500000FB
:106E40002F3100002E3100002033000030320000CE
:106E5000204600006F7500006E6400000D0A0000FF
:106E6000436F00006E6E00006563000074690000EF
:106E70006F6E00003A200000636C00006F7300002A
:106E8000650D00000A4C00006F6300006174000093
:106E9000696F00006E3A00002000000048540000B6
:106EA000545000002F3100002E310000203400002B
:106EB00030330000204600006F720000626900005D
:106EC00064640000656E00000D0A0000436F00005E
:106ED0006E6E000065630000746900006F6E000054
:106EE0003A200000636C00006F730000650D000025
:106EF0000A0D00000A340000303300002046000074
:106F00006F7200006269000064640000656E00003A
:106F10003A200000535300004C200000526500004E
:106F2000717500006972000065640000202D00008A
:106F300020750000736500002048000054540000D4
:106F4000505300000D0A000000000000BAB100001C
:106F5000BAB10000DFB100003DB20000BEB20000D7
:106F60005CB30000C9B3000039B400009FB4000056
:106F7000BFB50000C0B500006DB600001CB7000032
:106F80004EB700000D0A0000007400006578000094
:106F9000742F0000706C0000616900006E0000003A
:106FA00074650000787400002F680000746D0000A4
:106FB0006C00000074650000787400002F780000F9
:106FC0006D6C00000074000065780000742F0000F4
:106FD0006373000073000000696D000061670000CA
:106FE000652F00006769000066000000696D000001
:106FF00061670000652F0000706E000067000000F0
:10700000696D000061670000652F00006A70000074
:107010006567000000610000707000006C6900008E
:1070200063610000746900006F6E00002F6A000049
:1070300061760000612D0000766D000000610000A7
:1070400075640000696F00002F7800002D77000044
:107050006176000065000000C5B70000D0B70000F1
:10706000D0B70000D0B70000DAB70000E3B70000E7
:10707000ECB70000F6B7000000B800000BB8000045
:107080001FB80000BFB500006D7500006C740000F3
:107090006970000061720000742F0000666F0000CC
:1070A000726D00002D64000061740000610000003A
:1070B00061700000706C0000696300006174000082
:1070C000696F00006E2F0000782D000077770000B8
:1070D000772D0000666F0000726D00002D750000B6
:1070E000726C0000656E0000636F00006465000054
:1070F0006400000044B8000058B800000A4E0000C8
:1071000065740000626900006F730000204E00008B
:10711000616D0000652000003D20000000000000BF
:1071200000010000C8020000A005000000FF0000F0
:10713000000000000000000000000000000000004F
:10714000000000000000000000000000000000003F
:10715000000000000000000000000000000000002F
:1071600001010000F40300000A010000000100001A
:10717000FFFF0000000000000A01000000FE000008
:107180000A01000000FE00000000000000000000F6
:107190000A01000000010000FFFF000000000000E5
:1071A0004D43000048500000424F00004152000093
:1071B000440000000000000000000000000000008B
:1071C0000100000000040000A30000000000000017
:1071D00000000000000000000000000000000000AF
:1071E00002010000E70700000000000000000000AE
:1071F000000000000000000000000000000000008F
:10720000000000000000000000000000000000007E
:10721000000000000000000000000000000000006E
:10722000000000000000000000000000000000005E
:10723000000000000000000000000000000000004E
:10724000000000000000000000000000000000003E
:10725000000000000000000000000000000000002E
:10726000000000000000000000000000000000001E
:10727000000000000000000000000000000000000E
:1072800000000000000000000000000000000000FE
:1072900000000000000000000000000000000000EE
:1072A00000000000000000000000000000000000DE
:1072B00000000000000000000000000000000000CE
:1072C00000000000000000000000000000000000BE
:1072D00000000000000000000000000000000000AE
:1072E00003010000FA03000070750000626C0000EA
:1072F000696300000000000000720000656100008A
:107300006400000000000000000000000000000019
:1073100000000000000000000000000000700000FD
:1073200072690000766100007465000000000000D2
:107330007772000069740000650000000000000022
:1073400000700000756200006C69000063000000BE
:10735000000000000000000000000000000000002D
:1073600004010000DA030000000000006164000076
:107370006D6900006E0000000000000000000000C9
:10738000000000006D690000637200006F63000080
:1073900068690000700000000000000000000000AC
:1073A00000000000000000000000000000000000DD
:1073B00000000000000000000000000000000000CD
:1073C00000000000000000000000000000000000BD
:1073D00000000000000000000000000000000000AD
:1073E00005010000CA010000030000006BD300008B
:1073F0006CD300006DD300006ED3000000000000CD
:10740000000000000000000000000000000000007C
:10741000000000000000000000000000000000006C
:1074200008010000E2070000F30000000000000077
:10743000000000002000000020000000000000000C
:1074400000000000200000002000000000000000FC
:1074500000000000200000002000000000000000EC
:1074600000000000200000002000000000000000DC
:1074700010100000200000002000000000000000AC
:10748000101000002000000020000000000000009C
:10749000101000000001000040000000000000008B
:1074A000101000008000000020000000000000001C
:1074B00000000000000000000000000000000000CC
:1074C00000000000000000000000000000000000BC
:1074D00000000000000000000000000000000000AC
:1074E000000000000000000000000000000000009C
:1074F000000000000000000000000000000000008C
:10750000000000000000000000000000000000007B
:10751000000000000000000000000000000000006B
:1075200009010000E2070000FF0000000000000069
:10753000101000008000000020000000000000008B
:1075400000000000200000002000000000000000FB
:1075500000000000200000002000000000000000EB
:1075600000000000200000002000000000000000DB
:1075700000000000200000002000000000000000CB
:1075800000000000200000002000000000000000BB
:1075900000000000200000002000000000000000AB
:1075A0000101000020000000200000000000000099
:1075B00000000000000000000000000000000000CB
:1075C00000000000000000000000000000000000BB
:1075D00000000000000000000000000000000000AB
:1075E000000000000000000000000000000000009B
:1075F000000000000000000000000000000000008B
:10760000000000000000000000000000000000007A
:10761000000000000000000000000000000000006A
:107620000A010000E2070000030000000000000063
:10763000000000002000000020000000000000000A
:1076400000000000200000002000000000000000FA
:1076500000000000200000002000000000000000EA
:1076600000000000200000002000000000000000DA
:1076700000000000200000002000000000000000CA
:1076800000000000200000002000000000000000BA
:1076900000000000200000002000000000000000AA
:1076A000000000002000000020000000000000009A
:1076B00000000000000000000000000000000000CA
:1076C00000000000000000000000000000000000BA
:1076D00000000000000000000000000000000000AA
:1076E000000000000000000000000000000000009A
:1076F000000000000000000000000000000000008A
:107700000000000000000000000000000000000079
:107710000000000000000000000000000000000069
:107720000B010000C2050000000000000000000086
:107730000000000000000000000000000000000049
:107740000000000000000000000000000000000039
:107750000000000000000000000000000000000029
:107760000000000000000000000000000000000019
:107770000000000000000000000000000000000009
:1077800000000000000000000000000000000000F9
:1077900000000000000000000000000000000000E9
:1077A00000000000000000000000000000000000D9
:1077B00000000000000000000000000000000000C9
:1077C00000000000000000000000000000000000B9
:1077D00000000000000000000000000000000000A9
:1077E00014010000F00F0000000000000000000085
:1077F0000000000000000000000000000000000089
:107800000000000000000000000000000000000078
:107810000000000000000000000000000000000068
:107820000000000000000000000000000000000058
:107830000000000000000000000000000000000048
:107840000000000000000000000000000000000038
:107850000000000000000000000000000000000028
:107860000000000000000000000000000000000018
:107870000000000000000000000000000000000008
:1078800000000000000000000000000000000000F8
:1078900000000000000000000000000000000000E8
:1078A00000000000000000000000000000000000D8
:1078B00000000000000000000000000000000000C8
:1078C00000000000000000000000000000000000B8
:1078D00000000000000000000000000000000000A8
:1078E0000000000000000000000000000000000098
:1078F0000000000000000000000000000000000088
:107900000000000000000000000000000000000077
:107910000000000000000000000000000000000067
:107920000000000000000000000000000000000057
:107930000000000000000000000000000000000047
:107940000000000000000000000000000000000037
:107950000000000000000000000000000000000027
:107960000000000000000000000000000000000017
:107970000000000000000000000000000000000007
:1079800000000000000000000000000000000000F7
:1079900000000000000000000000000000000000E7
:1079A00000000000000000000000000000000000D7
:1079B00000000000000000000000000000000000C7
:1079C00000000000000000000000000000000000B7
:1079D00000000000000000000000000000000000A7
:1079E00015010000E8030000000000000000000096
:1079F0000000000000000000000000000000000087
:107A0000FF00000000000000000000000000000077
:107A10000000000000000000000000000000000066
:107A20000000000000000000000000000000000056
:107A30000000000000000000000000000000000046
:107A40000000000000000000000000000000000036
:107A50000000000000000000000000000000000026
:107A600010010000FA0F00000000000000000000FC
:107A70000000000000000000000000000000000006
:107A800000000000000000000000000000000000F6
:107A900000000000000000000000000000000000E6
:107AA00000000000000000000000000000000000D6
:107AB00000000000000000000000000000000000C6
:107AC00000000000000000000000000000000000B6
:107AD00000000000000000000000000000000000A6
:107AE0000000000000000000000000000000000096
:107AF0000000000000000000000000000000000086
:107B00000000000000000000000000000000000075
:107B10000000000000000000000000000000000065
:107B20000000000000000000000000000000000055
:107B30000000000000000000000000000000000045
:107B40000000000000000000000000000000000035
:107B50000000000000000000000000000000000025
:107B60000000000000000000000000000000000015
:107B70000000000000000000000000000000000005
:107B800000000000000000000000000000000000F5
:107B900000000000000000000000000000000000E5
:107BA00000000000000000000000000000000000D5
:107BB00000000000000000000000000000000000C5
:107BC00000000000000000000000000000000000B5
:107BD00000000000000000000000000000000000A5
:107BE0000000000000000000000000000000000095
:107BF0000000000000000000000000000000000085
:107C00000000000000000000000000000000000074
:107C10000000000000000000000000000000000064
:107C20000000000000000000000000000000000054
:107C30000000000000000000000000000000000044
:107C40000000000000000000000000000000000034
:107C50000000000000000000000000000000000024
:107C600000820000E00A0000DF00000000000000C9
:107C7000DF00000000000000DF0000000000000046
:107C8000CF00000000000000DF0000000000000046
:107C9000DF00000000000000DF0000000000000026
:107CA000DF00000000000000DF0000000000000016
:107CB000DF00000000000000CF0000000000000016
:107CC000CF000000000000000000000000000000E5
:107CD0000000000000000000DF00000000000000C5
:107CE000DF00000000000000DB09000000000000D1
:107CF000DB01000000000000DB01000000000000CC
:107D0000DB01000000000000CB00000000000000CC
:107D1000CB00000000000000000000000000000098
:107D2000DB03000000000000DB0500000000000095
:107D30000000000000000000000000000000000043
:107D40000000000000000000000000000000000033
:107D50000000000000000000000000000000000023
:107D6000CB00000000000000CB010000000000007C
:107D7000DB01000000000000DB0300000000000049
:107D8000DB05000000000000DB0000000000000038
:107D9000DB00000000000000DB000000000000002D
:107DA000DB000000000000000000000000000000F8
:107DB00000000000000000000000000000000000C3
:107DC0000020000082E000000AFF00004E41000099
:107DD00000FF00004E410000001700005344000067
:107DE000001800005343000000060000543000005B
:107DF000000700005431000000FF00004E41000069
:107E000000FF00004E41000000200000543400003C
:107E1000002100005435000000220000543600000C
:107E2000002300005437000000000000583000001C
:107E3000000100005831000000020000583200002C
:107E40000003000058330000000400005834000014
:107E500000050000583500000024000058360000DE
:107E600000250000583700000026000058380000A8
:107E7000002700005839000000260000583100009B
:107E8000302700005831000031FF00004E41000053
:107E900000FF00004E41000000FF00004E410000C6
:107EA00000FF00004E4100000008000059300000B3
:107EB0000009000059310000000A0000593200009A
:107EC000000B000059330000000C00005934000082
:107ED000000F000059350000001000005936000066
:107EE000001100005937000000120000593800004E
:107EF000001300005939000000140000593100003F
:107F00003015000059310000310000000D0A00005A
:107F1000000D00000A0D00000A000000697000005A
:107F20000067000077000000737500006200000029
:107F3000646E000073310000006400006E73000086
:107F4000320000006D61000063000000686F0000F7
:107F5000737400000064000068630000700000009B
:107F60002F700000726F00007465000063740000E1
:107F70002F720000656200006F6F0000742E000019
:107F8000687400006D3F0000002F00007072000058
:107F90006F74000065630000742F0000636F0000C1
:107FA0006E660000696700002E680000746D0000B6
:107FB000004D000069630000726F000063680000FC
:107FC0006970000020540000435000002F49000059
:107FD0005020000053740000616300006B2000001B
:107FE0005374000061740000757300002055000098
:107FF00070640000617400006500000022530000FE
:108000004D540000502000005365000072760000BF
:108010006963000065220000203C00006D630000E1
:1080200068700000626F0000617200006440000030
:1080300070690000637300006172000065670000F2
:108040006F6F0000642E0000636F00006D3E000043
:10805000004D0000494D0000452D000076650000F0
:1080600072730000696F00006E3A0000203100005A
:108070002E3000000D0A0000436F00006E740000F7
:10808000656E0000742D00007479000070650000BA
:108090003A2000006D7500006C74000069700000EB
:1080A00061720000742F00006D69000078650000A7
:1080B000643B0000206200006F7500006E640000E9
:1080C00061720000793D000022660000726F0000BE
:1080D0006E74000069650000722200000D0A000045
:1080E00000730000657200007665000072000000F9
:1080F000706F00007274000000750000736500006E
:1081000072000000706100007373000000740000D2
:108110006F0000006D7300006700000054680000ED
:1081200069730000206900007320000061200000D6
:108130006D7500006C740000692D00007061000016
:1081400072740000206D0000657300007361000010
:1081500067650000206900006E2000004D490000A6
:108160004D450000206600006F7200006D61000048
:10817000742E00000D0A0000002D00002D66000086
:10818000726F00006E74000069650000720D0000DF
:108190000A4300006F6E0000746500006E740000FA
:1081A0002D74000079700000653A00002074000012
:1081B00065780000742F0000706C00006169000099
:1081C0006E0D00000A0D00000A0000000D0A0000FC
:1081D0002D2D0000667200006F6E000074690000B3
:1081E000657200000D0A0000436F00006E7400000D
:1081F000656E0000742D0000747900007065000049
:108200003A20000074650000787400002F630000BD
:10821000737600000D0A0000436F00006E740000CA
:10822000656E0000742D000044690000737000004A
:108230006F73000069740000696F00006E3A0000FF
:10824000206100007474000061630000686D00002C
:10825000656E0000743B000020660000696C000041
:10826000656E0000616D0000653D00002273000036
:108270007461000074750000732E000063730000C9
:10828000762200000D0A00000D0A000000530000D5
:1082900059530000544500004D2000005354000085
:1082A00041540000555300000D0A00000042000038
:1082B00075740000746F00006E7300003A2C0000AB
:1082C000004C000045440000733A00002C00000000
:1082D000506F0000743A00002C0000002D2D0000AB
:1082E000667200006F6E0000746900006572000025
:1082F0002D2D00000D0A0000002F0000656D00000C
:10830000616900006C2F0000696E00006465000068
:10831000782E0000687400006D0000007365000096
:108320007276000069630000650000002F640000A1
:10833000796E0000646E0000732F0000696E00000B
:1083400064650000782E0000687400006D00000075
:10835000707200006F74000065630000740000001C
:10836000736E00006D700000006D0000706600000C
:1083700073750000706C00006F6100006400000005
:10838000616400006D6900006E0000006D6900000E
:10839000637200006F6300006869000070000000F5
:1083A0006E7A0000636B0000732E0000687400009A
:1083B0006D0000000A6300006D6400004765000066
:1083C00074000000206E0000616D0000653D00003B
:1083D000002C000020760000616C00007565000034
:1083E0003D000000206300006B0000000A48000010
:1083F000545400005045000078650000637500008B
:1084000074650000506F000073740000282900009C
:1084100000750000706C00006F6100006466000071
:10842000696C0000652E0000687400006D0000009B
:10843000707200006F74000065630000742F00000C
:10844000636F00006E660000696700002E68000020
:10845000746D0000006500006D610000696C000033
:108460002F6900006E640000657800002E6800002F
:10847000746D000000640000796E0000646E0000FE
:10848000732F0000696E000064650000782E000004
:10849000687400006D000000417000007220000050
:1084A0002035000020320000303100003420000070
:1084B000303000003A300000383A00003030000020
:1084C00000760000352E000034320000005300001A
:1084D000454C0000454300005445000044000000A6
:1084E0004E6F0000204C000043440000205000006C
:1084F00072650000736500006E740000006E00007D
:10850000616D000065000000486500006C6C0000B3
:108510006F2C0000200000006E6F0000742000002F
:1085200073650000740000003C6200003E550000CE
:10853000706C00006F61000064200000612000008A
:10854000466900006C6500003C2F0000623E0000A0
:10855000003C0000623E0000557000006C6F00009F
:10856000616400006564000020460000696C000042
:1085700065270000732000004D44000035200000F6
:1085800077610000733A00003C2F0000623E00005B
:108590003C620000722000002F3E000000630000DB
:1085A00068650000636B00006564000000730000F4
:1085B000656C0000656300007465000064000000E5
:1085C0006F6B0000007500006E6B0000006600001D
:1085D000616900006C000000546800006520000024
:1085E0006C6100007374000020750000706400006E
:1085F00061740000652000007761000073200000B6
:10860000737500006363000065730000736600000B
:10861000756C00002E00000054680000652000000A
:10862000495000002068000061730000206E0000C7
:108630006F74000020630000686100006E67000036
:108640006564000020730000696E0000636500002F
:108650002074000068650000206C00006173000059
:1086600074200000757000006461000074650000F3
:108670002E000000436F0000756C000064200000B5
:108680006E6F000074200000636F00006D6D0000CD
:10869000756E0000696300006174000065200000D1
:1086A000776900007468000020440000444E000018
:1086B00053200000736500007276000065720000B0
:1086C0002E00000054680000652000006375000063
:1086D00072720000656E000074200000636F00007D
:1086E0006E6600006967000075720000617400002A
:1086F000696F00006E20000069730000206E0000AA
:108700006F74000020760000616C00006964000056
:108710002E0000005468000065200000447900002D
:108720006E6100006D69000063200000444E00008F
:1087300053200000636C0000696500006E74000047
:108740002069000073200000706500006E64000066
:10875000696E000067200000616E00002075000057
:108760007064000061740000652E0000004100008C
:108770006E20000065720000726F00007220000021
:108780006F63000063750000727200006564000092
:108790002064000075720000696E00006720000010
:1087A00074680000652000007570000064610000BE
:1087B000746500002E3C000062720000202F000053
:1087C0003E5400006865000020440000444E000054
:1087D00053200000436C0000696500006E740000C7
:1087E00020690000732000007375000073700000A2
:1087F000656E000064650000642E0000006E0000DD
:108800006F6E000065000000626C00006F63000086
:108810006B00000075700000006400006E00000036
:108820000A450000525200003A200000676500002F
:1088300074550000637000006F72000074490000FE
:108840006E6400006578000028290000206900009F
:108850006E760000616C0000696400002049000031
:1088600044210000000A000045520000523A000076
:10887000207000006F7200007453000065740000E7
:108880004269000074610000647200002829000041
:10889000206900006E760000616C000069640000D1
:1088A0002042000069740000616400007221000031
:1088B000000A000045520000523A000020700000FB
:1088C0006F720000744300006C650000617200006C
:1088D00042690000746100006472000028290000F1
:1088E000206900006E760000616C00006964000081
:1088F00020420000697400006164000072210000E1
:10890000000A000045520000523A000020700000AA
:108910006F720000745700007269000074650000F7
:1089200042690000746100006472000028290000A0
:10893000206900006E760000616C00006964000030
:108940002042000069740000616400007221000090
:10895000000A000045520000523A00002067000063
:108960006574000053620000637000006F720000C5
:1089700074540000524900005328000029200000D0
:10898000696E0000766100006C69000064200000E0
:1089900049440000210000000A4500005252000036
:1089A0003A20000067650000745300006263000015
:1089B000706F0000727400005452000049530000B0
:1089C000774F0000666600007365000074280000A1
:1089D00029200000696E0000766100006C690000CB
:1089E0006420000049440000210000000A45000006
:1089F000525200003A2000006765000074550000E4
:108A0000637000006F72000074540000524900004F
:108A10005328000029200000696E000076610000E4
:108A20006C6900006420000049440000210000003F
:108A30000A450000525200003A200000676500001D
:108A400074550000637000006F72000074540000E1
:108A500052490000537700004F6600006673000023
:108A60006574000028290000206900006E7600006F
:108A7000616C00006964000020490000442100008E
:108A8000000A000045520000523A00002067000032
:108A90006574000055630000706F00007274000080
:108AA000434E0000504400002829000020690000C7
:108AB0006E760000616C00006964000020490000CF
:108AC00044210000000A000045520000523A000014
:108AD00020670000657400005362000063700000AE
:108AE0006F720000744300004E5000004477000095
:108AF0004F660000667300006574000028290000BE
:108B0000206900006E760000616C0000696400005E
:108B10002049000044210000000A000045520000E6
:108B2000523A0000206700006574000053620000A4
:108B3000637000006F720000744300004E5000002C
:108B40004428000029200000696E000076610000C2
:108B50006C6900006420000049440000210000000E
:108B60000A7000006F720000744300006F6E000016
:108B7000666900006753000062630000706F0000C8
:108B80007274000028290000204900006E76000061
:108B90002073000062630000706F000072740000B8
:108BA00049440000210000000A4500005252000024
:108BB0003A200000676500007455000063700000F3
:108BC0006F720000744300004E50000044770000B4
:108BD0004F660000667300006574000028290000DD
:108BE000206900006E760000616C0000696400007E
:108BF000204900004421000000000000FFFF0000A9
:108C0000FFFF0000D8920000D8A20000C862000058
:108C1000C8720000FFFF0000FFFF0000E812000024
:108C2000E8320000E8420000E8520000C8020000FC
:108C3000C8120000C8220000C8320000C84200006C
:108C4000C8520000F0620000F0720000F0820000E4
:108C5000F0920000F0820000F0920000FFFF0000A0
:108C6000FFFF0000FFFF0000FFFF0000C8820000C0
:108C7000C8920000C8A20000C8B20000C8E200000C
:108C8000C8F20000D8020000D8120000D82200006C
:108C9000D8320000D8620000D8720000FFFF000048
:108CA000393A000016170000FFFF00005153000082
:108CB000545500001011000012130000141500009C
:108CC000666700006869000068690000FFFF000037
:108CD000FFFF0000181900001A1B00001E1F0000F3
:108CE000303100003233000036370000FFFF000053
:108CF0001718000006070000FFFF000020210000F9
:108D0000222300000001000002030000040500000F
:108D1000242500002627000026270000FFFF000072
:108D2000FFFF0000080900000A0B00000C0F000004
:108D300010110000121300001415000002030000BF
:108D40000405000006070000181900001A1B0000A7
:108D50001C1D00001E1F0000200C0000FFFF000073
:108D6000FFFF0000FFFF0000FFFF0000FFFF00000B
:108D7000FFFF000017010000001600003132000064
:108D8000333400000D0E00000F100000FFFF000044
:108D9000FFFF0000FFFF0000FFFF00003A3B000064
:108DA0003C3D00003E3F000040410000FFFF00004E
:108DB000FFFF0000FFFF0000FFFF00004445000030
:108DC000FF47000011120000FFFF0000FFFF00003E
:108DD000FFFF0000FFFF0000FFFF0000FFFF00009B
:108DE00053540000FFFF0000080900000A0B0000B8
:108DF0000A540000435000003A2000004E6F00006B
:108E0000205300006B74000020410000766C0000CD
:108E1000626C0000000A000054430000503A000059
:108E200020540000435000005075000074200000E2
:108E30006E6F000020730000706100006365000029
:108E4000000A000054430000503A00002054000083
:108E50004350000050750000744100007272000021
:108E600061790000206E00006F2000007370000028
:108E700061630000650000000A54000043500000D8
:108E80003A200000466F0000726300006564000035
:108E9000206300006C6F000073650000206100001B
:108EA00066740000657200002077000061690000B0
:108EB000740000000A540000435000003A200000F3
:108EC000436F00006E6E0000204300006C6F0000D6
:108ED00073650000642000002D200000546900002C
:108EE0006D6500006F750000740000000A540000FA
:108EF000435000003A200000546D00006F750000E0
:108F00007420000047450000545F0000444E0000FC
:108F1000530000000A540000435000003A200000B3
:108F2000546D00006F75000074200000444E000076
:108F3000535F000052450000534F00004C560000A4
:108F4000450000000A540000435000003A20000091
:108F5000546D00006F750000742000004741000050
:108F60005445000057410000595F00005345000080
:108F70004E4400005F41000052500000000A000013
:108F800054430000503A0000205400006D6F000070
:108F90007574000020470000415400004557000050
:108FA000415900005F470000455400005F41000048
:108FB00052500000000A000054430000503A0000E4
:108FC000205400006D6F00007574000020530000F5
:108FD000594E00005F530000454E00005400000051
:108FE0000A540000435000003A200000546D000075
:108FF0006F75000074200000535900004E5F0000A0
:109000005243000056440000000A00005443000090
:10901000503A0000205400006D6F0000757400008D
:1090200020530000594E00005F52000043560000DC
:10903000442000004D610000780000000A54000048
:10904000435000003A200000546D00006F7500008E
:10905000742000004553000054410000424C0000C1
:1090600053480000440000000A5400004350000030
:109070003A200000546D00006F750000742000005D
:109080004553000054410000424C0000534800008A
:10909000442000004D610000780000000A540000E8
:1090A000435000003A200000546D00006F7500002E
:1090B00074200000464900004E5F00005741000048
:1090C00049540000204D000061780000000A0000B3
:1090D00054430000503A0000205400006D6F00001F
