:100000000004040000000000041C0000081C0000A4
:100010000C1C0000101C0000141C00000C1D000033
:100020000C1D00000C1D0000181C00001C1C000012
:10003000201C0000241C00000C1D0000281C0000D7
:100040002C1C0000301C0000341C0000381C000078
:100050003C1C0000401C0000441C0000481C000028
:100060000C1D00000C1D00004C1C0000501C00006A
:10007000541C0000581C00005C1C00000C1D0000FB
:10008000601C0000641C00000C1D0000681C0000C7
:100090006C1C0000701C0000741C0000781C000028
:1000A0007C1C0000801C0000841C0000881C0000D8
:1000B0000C1D00000C1D00000C1D00008C1C00001D
:1000C000901C0000941C0000981C00009C1C000068
:1000D000A01C0000A41C0000A81C0000AC1C000018
:1000E0000C1D00000C1D00000C1D0000B01C0000C9
:1000F000B41C00000C1D00000C1D0000B81C00000A
:10010000BC1C00000C1D00000C1D00000C1D00009C
:100110000C1D00000C1D00000C1D00000C1D00003B
:10012000C01C00000C1D00000C1D0000C41C0000C1
:10013000C81C0000CC1C00000C1D00000C1D0000A1
:100140000C1D00000C1D0000D01C00000C1D000048
:100150000C1D00000C1D00000C1D0000D41C000034
:100160000C1D00000C1D00000C1D0000D81C000020
:10017000DC1C0000E01C0000E41C0000E81C000087
:10018000EC1C0000F01C0000F41C0000F81C000037
:10019000FC1C0000001D0000041D0000081D0000E4
:1001A0000C1D00000C1D00000C1D00000C1D0000AB
:1001B0000C1D00000C1D00000C1D00000C1D00009B
:1001C0000C1D00000C1D00000C1D00000C1D00008B
:1001D0000C1D00000C1D00000C1D00000C1D00007B
:1001E0000C1D00000C1D00000C1D00000C1D00006B
:1001F0000C1D00000C1D00000C1D00000C1D00005B
:100800004FF020000EFF27000E01880000000000BE
:100810000C00070060892100010020000F00070084
:10082000000020000000E000020032000000020092
:1008300000000000E0120200000000000040DA00AA
:100840000000FE00800B20000000E00002003200EB
:10085000002020009001880000000600A10288000E
:10086000800078000000EB001A003700E2804000B2
:1008700054A0B4009101BA00E280400054A0B4003A
:100880009102BA00E280400054A0B4000002EB00E4
:10089000472BDE00F507B200A6018800602CE100BE
:1008A00008003A000049EB000201E80002003900AC
:1008B0003420EC0002F0A0008301E900F9FF3E00C3
:1008C000040037006128E100010032000082EB00E3
:1008D000040007001101BA000200E000E3FF3A0043
:1008E0000000060004D0A300E20F49001C003900FC
:1008F000810278003549BA000201E800020039009F
:100900003420EC0002F0A0008301E9000F00320067
:100910002549BA000201E800020039003420EC0049
:1009200002F0A0008301E900080032000400E000AA
:100930000600320015C9BA000201E80002003900C1
:100940003420EC0002F0A0008301E9008180E8007F
:1009500054A0B4000300E000E2FF3A0000000600EB
:100960009102BA00055978008301E900F7FF3200CF
:10097000C82ADE00055978008301E900F3FF320040
:100980000400E000F1FF320011D9BA00EEFF370099
:100990008001780002003700815978000401780056
:1009A0000202E900E00F5100FBFF3A0000000600E0
:1009B000120100000002000000000000000800001A
:1009C000D8040000E0F8000002000000010200006E
:1009D00000010000090200002900000001010000E0
:1009E00000C0000032090000040000000002000006
:1009F00003000000000000000921000011010000B8
:100A000000010000221D0000000700000581000019
:100A10000340000000010000070500000103000082
:100A20004000000001000000040300000904000071
:100A30002C0300004D0000006F0000006400000067
:100A400074000000720000006F0000006E000000E3
:100A50006900000078000000200000004500000050
:100A60006E00000067000000690000006E000000DA
:100A700065000000650000007200000069000000D1
:100A80006E00000067000000260300005500000013
:100A90005300000042000000200000004800000059
:100AA0004900000044000000200000004200000057
:100AB0006F0000006F000000740000006C00000078
:100AC0006F0000006100000064000000650000008D
:100AD0007200000006000000FF09000001A10000F4
:100AE0000119000001290000401500000026000047
:100AF000FF00000075080000954000008100000024
:100B0000190100002940000091000000C000000011
:100B1000EA84000014850000188500004485000068
:100B20000080FB008181FB000001400082814100C8
:100B3000421ADD0002E020000201420012F0A10092
:100B4000E0CF500004003A000000400001DD20002A
:100B500082307800030037000000400041DD2000B3
:100B600082307800C219DD0000E020000300400060
:100B700010E0A00000000600006E800081C0B300FD
:100B8000E70F50000A003E0080407800DECDBF0035
:100B900003003A0010C0B300DEEDB70004003700D8
:100BA000E14F500002003A0020C0B300DEEDB70074
:100BB0000180FB00C02DB500A06E800001487800C8
:100BC00080DF2000006F8800BE0DAB000300320004
:100BD000E0CF50000B003A0000000600E0CF5000CC
:100BE0000F003200E06D8000026F80003059780005
:100BF000026F8800E06D88008140E900F9FF3A004B
:100C000000000600E06D8000026F8000305978001F
:100C1000026F8800E06D88008140E900F9FF3A002A
:100C20000000060001DF20009140780000C8B300FA
:100C300080CF50002D003A0000CCB300BEEDB700CD
:100C4000F3CDBF00E24F500009003200E34F5000E7
:100C500016003200E14F500023003A00804D28007A
:100C6000E06D880020012000006E88000000060072
:100C7000F2CDBF000080FB0000004000815828003A
:100C800061007800E06D8800801F780020409000AF
:100C9000C0EDB7004F007800801F78003040900012
:100CA000C1EDB7004F00780000000600F2CDBF0094
:100CB000E24F50000A003E00F2CDBF000080FB0072
:100CC00000004000A158280061007800E06D880015
:100CD000104078000080FB00006E880000000600D5
:100CE000BE6DEF0000000600BE6DEF0000000600C4
:100CF0000040EB00F8EDB700F9EDB700F0CDBF0014
:100D00007F006000E10F50000B003200E20F500046
:100D10000B003200E00F50001D003A00BEEDA800AD
:100D2000F80DA800106E8000E10F500018003A0086
:100D3000F82DA80016003700BEEDA80014003700FB
:100D4000BEEDA800F4CDBF0006003300F4CDBF0017
:100D50006F0060000000400001DD2000E10078002D
:100D600005003700F4CDBF006F00600000004000B8
:100D700041DD2000E1007800004028009100600083
:100D8000808F500002003A0010C0B300F8EDB700A9
:100D9000BEEDAB000500320080DF2000E06D880072
:100DA000BE0DA80020C0B300C0EDB70000000600D3
:100DB000AA24AB000D003200D26E80009240900059
:100DC00000C8B30080CF500007003A00A06E80003A
:100DD0009040900040C8B30080CF500002003A001D
:100DE0006840400010419800AA24A9000008200093
:100DF0005024880000000600881F7800A06E800044
:100E0000100078004E00DE0061446000306E80000B
:100E1000E80F50000B003A00F2CDBF000080FB004D
:100E2000B0248800B0248000E00F5000030032009E
:100E300000012000306E88000200370040002000D2
:100E4000306E8800DFCDBF00E14F500015003A0042
:100E500080DF2000A16E80009000980046FF070010
:100E6000DECDBF00E24F500004003A0040C8B3009E
:100E7000A16E80009040980016003700E04F5400AB
:100E800004003A0080CCB300A16E8000904098002E
:100E90001000370080C8B300A16E80009040980019
:100EA0000C003700CBCDBF0009003B00E1DC200087
:100EB000914078008180FB00CFCDBF004800DD006D
:100EC000010070000100320000000100CBEDA9001C
:100ED000DF6DEF004F047800000006008000EB009B
:100EE000216E8800010178004007200036060700C7
:100EF0008284A90000012000002488000000060070
:100F00008284A800000120005024880010002000E6
:100F1000206E88000001EB008000EB0050072000ED
:100F200029063700F2CDBF00E14F50000B003A0018
:100F3000F0CDBF007F40600008003A00BEEDA80081
:100F4000F1CDBF00E34F500003003A001000200035
:100F5000106E880001003700C22DEF00F2CDBF00F7
:100F600072003A00F0CDBF007F406000E24F5000B9
:100F70006E003A00F4CDBF006F4060006B0032009D
:100F8000F4CDBF006F006000E10F500067003C002F
:100F900000022000316E8000808F500063003A0014
:100FA000BEEDA800F4CDBF000A003300F4CDBF00B1
:100FB0006F0060000000400001DD2000E1007800CB
:100FC000F4CDBF006F00600082DE20006241780037
:100FD00009003700F4CDBF006F0060000000400042
:100FE00041DD2000E1007800F4CDBF006F0060001B
:100FF00062DE200062417800F4CDBF0006003300BD
:10100000F4CDBF006F0060000000400003DD200051
:101010008131780005003700F4CDBF006F0060001B
:101020000000400043DD200081317800F1CDBF0099
:10103000E34F500017003A000000EB00910F100042
:101040000F003D00F4CDBF0007003300F4CDBF001A
:101050006F00600082DE2000E24178000314A000EF
:101060000371780006003700F4CDBF006F00600008
:1010700062DE2000E24178000314A00003717800D2
:101080001141900040C8B3000040710090409800AA
:10109000000006006241610003003A000000EB001E
:1010A000910F100017003D00F4CDBF000700330082
:1010B000F4CDBF006F00600082DE2000E2417800C6
:1010C0000314A1000371780006003700F4CDBF00BF
:1010D0006F00600062DE2000E24178000314A1008E
:1010E0000371780011409000B047B2000064A00086
:1010F000904098002200200050002000B205070018
:101100000400370011409000B047B2000064A00016
:1011100090409800F4CDBF006F00600000004000D8
:10112000A14A2000010040001014A10000000600A8
:10113000889FBE00BEEDA8000004EB006825880073
:1011400009E02000020120008800780009007800F2
:101150000FFE07009424A8000004FD00E6EDB70090
:10116000E8EDB700E7EDB700E9EDB700D8EDB7005F
:101170000004FD009424A90064804400A06E88004F
:10118000D96E8800E96E8800F2CDBF00C8EDB700C7
:1011900003003A0000012000306E8800060037008E
:1011A0001200200081DC20001000200086050700CE
:1011B00000022000306E88004F04BE0000000600D0
:1011C000F0CDBF000046B20039003A00F1CDBF00BB
:1011D0000080FB0001002000EB0F5000E08F580062
:1011E00033003E000060010018003700180037008F
:1011F0002F003700160037002D003700060037009B
:1012000009003700260037000900370007003700C3
:101210001000370019003700BEEDA8008000200044
:10122000306E8800000006007EFE3700C0FF3700E9
:1012300080DC2000E06D8800BE0DA80010C0B30067
:10124000C0EDB700BEEDA80000000600A8FE370004
:1012500034FF3700F4CDBF000080FB0081DD2000AB
:1012600001004000E06D8800BE0DA80010C0B30072
:10127000C0EDB700BEEDA80000000600BEEDA8005E
:10128000F4CDBF000080FB0081DD2000821F7800CC
:1012900022DF2000927078004F01780000000600E5
:1012A0000001EB008000EB00200020004605070055
:1012B000000006009EC0A9000080EB00702488009A
:1012C000502488000001EB00522588006225880028
:1012D00032258800422588008644A900F0092000B4
:1012E00080248800602488008804A80000E0200092
:1012F0004800DE00C02488006000B800007088004C
:10130000117088002070880031708800407088005B
:101310005170880060708800717088009424A80063
:10132000B224880094A4A9009424A9005024800029
:1013300068006000820F5000090032008200200027
:101340000040EB0052248800BEEDB700CBEDB700A3
:10135000CCEDB700CDEDB7008A64AB00F9FF3A00E1
:1013600010002000606F8800706F88000000EB00A4
:10137000D06D8800B06D8800206E8800806E880077
:10138000E6EDB700E8EDB700B06E8800906E88001B
:10139000E7EDB700E9EDB70041E02000A16E88005D
:1013A000D10020005125880001DF20001170880045
:1013B00081C0B3008000FD0000EEB7008000FD009A
:1013C00041C8B3008000FD0001EEB7008000FD00C1
:1013D000C8EDB700306E880000000600889FBE0090
:1013E0008A1F780000447800814478000985FB005A
:1013F00068006500030032008040EB000840780080
:10140000C7FD0700640565000300320011C0B3008A
:1014100008407800C2FD07000884FB00080444006F
:10142000A04A200009707C004F0578004F04BE00E0
:1014300000000600E0CF5000050032000080FB00F5
:101440000000400041DD2000E1007800040037008A
:101450000080FB000000400001DD2000E10078007A
:101460000000EB00808F50000D0032001140900012
:101470000064A20090409800920098008348780091
:10148000114090000044B20090409800114190003B
:1014900080C8B300004071009040980001007800BF
:1014A00000000600E04F50000C003A0080C0B3007E
:1014B000E16E800080487800E16E800000DF20004F
:1014C00090009800C0C8B300904098006840500059
:1014D000A16E800090409800000006008180FB0013
:1014E0000080FB000000400080804000C208DD005A
:1014F00000E02000810040001141900040C8B3008E
:1015000000407100904098000000060094A4AB00D9
:101510000E0032000080FB000000400044DD20008F
:1015200000024200940278001501BE000004200071
:10153000010020000201600003002000828ABE003A
:10154000140178001219680012916800000006006A
:10155000606F8000E00F50001B003A001000200078
:10156000606F8800706F8000E00F500016003A0036
:1015700010002000706F8800DFCDBF00E24F5000E8
:1015800006003A00A06E80000048EB0080CCB3005B
:10159000A16E80009040980000000600E14F5000CE
:1015A00009003A00E42DEF0080C0B300E16E800036
:1015B00080487800E16E800000DF200090009800F5
:1015C00000C8B3009040980000000600D06E800074
:1015D00010417800C1DC2000914078008180FB0040
:1015E000CDCDBF004800DD00010070008280FB000F
:1015F000808F500001003600004178008280FB009F
:1016000001005000CCEDB7004800DE00CDEDB70082
:10161000E04F5100150032000040EB0094DC200048
:10162000144278000482FB00A1DC20009140780085
:10163000C808DD008081FB008480700084DF20000A
:10164000E4D879008000FD00C9EDB7008000FD00FE
:10165000C808DE008000FD00CAEDB7008000FD0074
:101660000040E800804F5100ECFF3E00C1DC20004C
:10167000914078008180FB00CDCDBF004800DD00A7
:10168000010070001000320080C0B300E16E8000E5
:1016900080487800E06E800081DF20001100980013
:1016A00001002400D26E80009280600003003A00A6
:1016B00081CCB300114098000000060081C8B3003F
:1016C000114098000000060080C0B300E16E800069
:1016D00080487800E16E800000DF200090009800D4
:1016E00040C8B30090409800E1DC200091407800B1
:1016F0008180FB00CFCDBF004800DD0001007000FD
:101700000100320000000100CBEDA900C06D800097
:10171000E00F500001003A008DFF070000000600B6
:10172000DFCDBF00E24F500001003A00A7FF3700B5
:10173000DF6DEF00206F8000E00F500009003A00DD
:1017400080C0B300E16E800080487800E16E8000C8
:1017500000DF200090009800C0C8B30090409800BF
:1017600000000600E42DEF00000006000000EB0082
:10177000D06D8800B06D8800DFCDBF00E24F500013
:1017800009003A0080C0B300E16E80008048780014
:10179000E16E800080DF20009000980080CCB300D4
:1017A0009040980000000600F6CDBF000080FB00CE
:1017B00071DF200091407800C808DD0000807000D3
:1017C000016E8000810F500007003100F6CDBF0090
:1017D0000080FB0071DF200091407800C808DD0028
:1017E00000807000006E8800E3FC0700A16E80009E
:1017F00080DF20009000980080CCB30090409800DB
:101800000000060094A4A900BEEDAB0018003A0049
:10181000CBCDBF000A003B0020C0B300DFEDB70016
:10182000B06D8000E00F500001003A00CFFF0700CC
:101830000000EB00706F8800606F880000000600F9
:1018400080C0B300E16E800080487800E16E8000C7
:1018500000DF200090009800C0C8B30090409800BE
:1018600068405000A16E8000904098000000060083
:10187000F0CDBF000D003B0010C0B300DFEDB7009E
:10188000D06D8000E00F500001003A00B7FF070064
:101890000000EB00706F8800606F8800C06D8000F2
:1018A000E00F500012003A0029FF370020C0B300BB
:1018B000DFEDB70080C0B300E16E800080487800A3
:1018C000E16E800000DF20009000980040C8B30067
:1018D000904098000000EB00706F8800606F8800F7
:1018E000C06D8000E00F500001003A0018FF0700B3
:1018F00000000600881F78000040EB00DEEDB70016
:101900000004EB00C86D8800D86D8800B86D8800B1
:10191000286F8800DFEDB700A26E80009240900033
:101920000174A10011419800A26E800092409000C5
:101930000174A10011419800E26E80009240900075
:101940000174A10011419800BEEDB700086E880037
:10195000CBEDB700CCEDB700CDEDB70018FE07001A
:101960000801780088007800300020009603070006
:10197000A4FF07004F04780000000600D0C2B300A7
:10198000EAEDB700E2CDBF0080007800B10FB200F1
:101990001E003A008082FB00C22ADE004229DD00E0
:1019A00003E0200083004100D16E8800E16E8800D2
:1019B0006301790000C023000001610000402300A2
:1019C000800F510010003A000040EB00110290001F
:1019D0000081FB0003DF200014427800847179004D
:1019E000110190000201E800920098000040E80018
:1019F000E74F5000F5FF3600C22ADD0020E020004E
:101A000003B07A00BBFF370045FF3700E88F500076
:101A100001003A00F8FC070000000600889FBE00A5
:101A20008A1F7800306E8000E00F500010003A00EE
:101A3000A024880060248800302588004025880084
:101A40008644A900F00920008024880060248800D2
:101A50009404AB0003003A009404A8009404AB0083
:101A6000FDFF320010002000306E880002003700B9
:101A7000E10F500008003A0094C4AB0006003A00A1
:101A80008AA4EF008C24EF008C04A8008C84A800AA
:101A900020002000306E88008084AB0005003200FA
:101AA0008284AB0003003200000120000024880083
:101AB0000AFD07008824AB00020032008EC0A90096
:101AC000550037008A04AB00070032008C04AB00DD
:101AD00005003200F7FD070040002000306E88004E
:101AE00010002000502488008A84AB0005003200DA
:101AF0008C84AB000300320001FD070000012000D0
:101B0000502488008A44AB000E0032008C44AB00A5
:101B100004003200120020008000EB00300720009B
:101B2000290307004000200050248800EACDBF00B0
:101B3000030032000040E900EAEDB70001003A007E
:101B400083FE07008AE4AB00030032008CE4AB00A4
:101B50000100320096FC07008A24AB000900320025
:101B60008C24AB0007003200120020008000EB0044
:101B7000F0FF2700140307008EA4EF0020002000D0
:101B800050248800306E8000E30F500002003E00B9
:101B90008EC0A900200037008C64AB001D0032000D
:101BA00050248000680060000044EB0089002000A1
:101BB0002A07200003003A00160037008A64AB00B1
:101BC00014003200912480008000FD00E2EDB70097
:101BD0008000FD008180FB00C408DE008000FD0065
:101BE000E3EDB7008000FD005924880002003A00B0
:101BF00062FF0700040037000001EB0021DE200037
:101C00000A007800F00207000844E800E34F54009F
:101C1000EAFF36008EC0A9004F0578004F04BE00D1
:101C2000000006008460AB00170032008460A90049
:101C300030428000000040003042880007003A0037
:101C400010002000304288004D68EC004CC8BF00F6
:101C500002003A004D68EF00050037004DC8BF0094
:101C60006100600002003200504280000100370035
:101C7000404280004608B60002003200CAC2A800F6
:101C800000000600CAC2A90000000600F090200073
:101C900040428800E3FF0700FEFF370085FD070094
:101CA0000000EB00F0778800007888000000060054
:101CB0008824AB00030032009024200040428800BA
:101CC0000000060000022000316E8000808F50006E
:101CD00003003A0090002000404288000000060007
:101CE000100020004042880000000600889FBE00CF
:101CF0008A9FBE0000C8BF0029003A00007880001B
:101D0000E00F5000030032008000EB00908F1000C5
:101D1000E5003500F0778000E00F5000050032004C
:101D20008001EB00908F1100DF0035000040EB00D8
:101D3000010037000040EB00F2C3B3008080FB00DD
:101D400004E9200003E12000E4F178000040E8000D
:101D5000824F5000F9FF360003C4B30002E92000AF
:101D60008040EB0010C0B300B2FD0700F0778800A0
:101D700010C0B30000E8B7000040EB00004178005D
:101D8000F1C3B3008081FB0004E5200002F279007A
:101D90000040E800814F5000FAFF3600C2003700D3
:101DA00010CEBF006F41600080007800010FB200CC
:101DB00003082000838F500033003A000178800030
:101DC000E08F5000030032008001EB00918F110082
:101DD000B500350050EEB70013E1200093417800C4
:101DE0008381FB0024E12000144278004822DD00BA
:101DF0000300720033E12000934178008381FB00EF
:101E000044E12000144278004822DD008300720083
:101E100051EEB700C801DE008001FD0052EEB700B0
:101E20008001FD008000FD0053EEB7008000FD0042
:101E3000C809DE008001FD0054EEB7008001FD00FE
:101E400053E12000934178008001FD0055EEB7007A
:101E50008001FD00E54F510003003A008381FB0043
:101E600062E52000E502070003C4B30002E520009C
:101E700011C0B300014078006EFD070000788800B3
:101E80000068EF008800370003092000838F5000AE
:101E900018003A0013E12000934178008381FB0091
:101EA00024E12000144278004822DD000300720083
:101EB00033E12000934178008381FB0044E120005E
:101EC000144278004822DD0083007200E54F510083
:101ED00006003A000003070051E12000914078001D
:101EE0008180FB0060E12000FE0207000068EF0037
:101EF0006D0037000080FB00010020000005B100EC
:101F00000180B100E40F5000E08F580066003E00F1
:101F100000600100040037001E0037001F0037007A
:101F2000260037005F00370000C5B30050EEB70051
:101F30000040EB00A1C0B3008000FD0051EEB700EF
:101F40008000FD0052EEB70021C0B3008000FD000C
:101F500053EEB7008000FD0054EEB700007880001B
:101F6000E00F5000030032008000EB00908F100063
:101F70004D00350003C4B30002E5200011C0B300DA
:101F8000014078002BFD0700007888000068EF0012
:101F9000450037000068EF00430037000000EB0009
:101FA000A0248800000000000000E800E10F4000CD
:101FB000FCFF3A000000FE003B00370011CEBF00DE
:101FC000E54F500035003A0012CEBF000080FB0004
:101FD00031E1200091407800C808DD0000847000E5
:101FE00014CEBF000080FB0051E12000914078003A
:101FF000C808DD008084700062E120001241780092
:102000000281FB0073E1200093417800C819DD00D4
:102010000280710082E12000124178000281FB0001
:1020200093E1200093417800C819DD00828071009F
:10203000800F5400818F5C00180031000A002100DD
:102040000B00200075FE07000800BE00F00207002C
:102050000804450089844D0062E1200012417800A7
:102060000281FB0073E1200093417800C819DD0074
:102070000280710082E12000124178000281FB00A1
:1020800093E1200093417800C819DD00828071003F
:10209000880F5000898F5800EAFF3E000068EF006B
:1020A000010037000068EF004F05BE004F04BE007E
:1020B00000000600F0F020005042880010C0B3007D
:1020C0004CE8B7000068EF00F4FE0700D5FE0700FB
:1020D00052FE0700F6FE0700306E8000FF0F500032
:1020E000FAFF36008824AB00F8FF3A00FFFE070035
:1020F000F6FF370010002400003B88000040EB0092
:10210000B20CF8005400F9008040E80083658000BC
:102110000080FB000000400042CB200062007800FD
:102120008009BB000140E8008180FB008180400005
:10213000E28078008189BB00826580009365800021
:1021400062014100E0814900826588009365880052
:10215000E04F5000EAFF3D001000FC005005200059
:10216000303B8800A00A2000303B880061E7A800CF
:102170000000000000000000003B8000E00F500065
:10218000FDFF350061C7A900000006001280200095
:10219000124178000281FB00030020004A18DD0094
:1021A000C610DE00810070004A10DD002204240009
:1021B000023B88000181FB00A20288000081EB0045
:1021C0000208BB001000FC0050052000303B8800D6
:1021D000A00A2000303B880061E7A8000000000052
:1021E00000000000003B8000E00F5000FDFF3500C4
:1021F00000000600EA874700889FBE008A9FBE0055
:102200008C9FBE008E1F7800F0F0200040428800B6
:10221000CAC2A8000302200002C720006000B80064
:10222000F60107000302200002C92000000022007E
:1022300041002000F101070021C7200091407800F3
:10224000E1CF400016003A00A036250082638000EE
:10225000800F510012003A0010C0B3004FE8B700E1
:10226000A036250081648000808F500025003A0050
:1022700092CCBF00E24F400029003200E84F4000FE
:102280002E003A0050C5B300C0EF9F00E1CFB3006D
:10229000D1EF9F0008002100090020004200370014
:1022A0000040EB0022C9200012417800E14F4100BC
:1022B000BD003A00A236250083648000828F510061
:1022C000B9003A004F68EF00020078008263800096
:1022D000800F510020003A00E2CF4000250032007C
:1022E000E8CF40002A003A00E3CFB300C3EF9F00DD
:1022F00054C5B300D4EF9F0008002300490020001C
:102300002900370055C5B300C5EF9F00E8CFB300E3
:10231000D8EF9F00080021000900200022003700AC
:10232000C0CFB300C0EF9F00E1CFB300D1EF9F005B
:1023300008002100090020001B00370003CFB30074
:10234000C3EF9F00E4CFB300D4EF9F00080021004B
:102350000900200014003700E5CFB300C5EF9F004F
:1023600058C5B300D8EF9F000800230049002000A3
:102370000D003700E0CFB300C0EF9F00C1CFB30026
:10238000D1EF9F000800230049002000060037001D
:10239000E3CFB300C3EF9F0004CFB300D4EF9F009F
:1023A000080023004900200070C0B30001E8B70016
:1023B0009ACAB30075FF070098FD07000148EC00BA
:1023C00001E8B7008A4F5000FAFF360061C7A90044
:1023D00005C0210085658800B22CEF000047EB00A6
:1023E000FDCBB3007FB597008FBD97008BFD070035
:1023F000030C2000028520000800BE007F010700BA
:10240000080CB0000980B00011C0B3000040EB0020
:102410008E41780007F02F004CCB2000F8B79F00CA
:1024200089BF9F00814478000381FB000485200060
:10243000644379000681FB008A806300828070001B
:102440008341E8000381FB00E44279004829DD0074
:10245000F80F200088806000028570008341E8004A
:102460008380FB0064C278000481FB008B806300E2
:10247000828070008341E800878570008080FB00C7
:102480008180400081004600864878009540980091
:102490008040E8000180FB000000400004767800E6
:1024A0000140E8000082EB008082EB00840F5500C1
:1024B000858F5D00010032008E4478008DCF510081
:1024C000D9FF3600894078007FB497008FBC970011
:1024D000E0CF500002003A0006FF07000600370078
:1024E00080658000916580000008B0000180B00028
:1024F0008065880091658800F07F2A002100200017
:102500008265800093658000800F5100818F5900A3
:10251000B6FF3600DFE89700A1EF9F00CFE99700F4
:10252000B3EF9F004FC8BF00E14F500007003A00D3
:10253000A3EF9F00B1EF9F002800200009002000BA
:102540002000220041002000040037002800220063
:1025500049002000200020000100200052C5B300E7
:102560002FEA9700824F5200040032005A01070000
:1025700011002000768057005A01070050C5B300B3
:10258000BFE8970080CF5000050032000800BE0071
:10259000510107001100200075805700510107000C
:1025A000CAC2A90010C0B3004F0778004F06BE0092
:1025B0004F05BE004F04BE00AF00B1000000060092
:1025C000881F78004EE8EF000000EB00102788001D
:1025D0002027880030278800C8C2A900CAC2A900E5
:1025E000D5E2A800D1E2A900D5A2A800D1A2A900F5
:1025F000113A8000F10BB200620420007305200044
:1026000024742000024A7800034A7800014A7800C6
:102610006436800001FC2F0001026200B400B300A8
:10262000643688007436800001026200A400B300A2
:102630007436880064358000810062005102B30066
:1026400061358800113A80000804200088807000FD
:1026500024742000024A7800034A7800014A780076
:10266000D962A900D1C2A800C9C2A900B113200033
:1026700011138800201388000013880061E2A8006D
:102680000103200021088800A1862100110888008C
:102690000008880005E1A800C8E2A8005920A800A9
:1026A000C8C2A800110020003142880040428800C2
:1026B0004CE8B700A900070050168000080460002D
:1026C0000300320010C0B30044E8B7000600370032
:1026D000CAE2AB000300320020C0B30044E8B700F8
:1026E000010037004468EF00C8C2A90044C8BF0019
:1026F000E24F500003003A006EFE0700001C040089
:102700000000000044C8BF00E14F500003003A0041
:102710005EFD0700001C040000000000B5FE07007D
:10272000001C0400000000000000EB004F047800D3
:102730000000060000000600000006000000060081
:10274000000006002702370000000600D1C1B300D8
:1027500010C0B30021FB070003C4B30002E920004E
:102760008040EB0010C0B30032FB0700F077880018
:1027700000000600106E8000E10F500011003A00CA
:10278000206E8000E10F50000E003A008824A9005E
:10279000C42DEF0000E12000A06D8800B40DED0015
:1027A000A06D8800FDFF3A009444A80080702000CE
:1027B000A06D8800B40DED00A06D8800FDFF3A000B
:1027C0009444A90000000600E10F5000030032000D
:1027D000E30F500004003A0002003700DBFF07005F
:1027E00001003700D7FF070010000500889FBE00DA
:1027F0008A9FBE008C9FBE000004BE008245780008
:10280000E0CF55000C0032000045EB000D402000E9
:102810000C8520004A50DD00CF80DE00000044001F
:1028200081804C000C01BE00740007000A45E800DE
:102830008ACF5500F7FF3E004F06BE004F05BE0091
:102840004F04BE0000000600D5A2A9000080FB00D6
:10285000401388006022AB00FEFF3A006002AB002C
:10286000FCFF320040138000D5A2A8000000060043
:10287000D5A2A90050002000401388006022AB00C0
:10288000FEFF3A006002AB00FCFF32004013800004
:102890008000EB00411388006022AB00FEFF3A008D
:1028A0006002AB00FCFF320040138000F4EEB70082
:1028B00061006000F7FF3A00D5A2A8000000060002
:1028C0000200FA00881F7800F5CEBF0020003A0011
:1028D00010C0B300F5EEB700B877800060012300A8
:1028E000800F540003003A0060C0B300D6FF070019
:1028F0000200370000C5B300D3FF0700D5A2A9002E
:1029000010002000401388006022AB00FEFF3A0058
:102910006002AB00FCFF320040138000C0FF9F004C
:102920006822EF006022AB00FEFF3A006002AB00BD
:10293000FCFF320040138000C0FF9F00D5A2A8001A
:1029400060012300800F540001003A00C8FF070017
:102950004F0478000080FA0000000600F56EEF00DA
:10296000D5A2A900F0092000401388006022AB0026
:10297000FEFF3A006002AB00FCFF32004013800013
:10298000F4EEB7006822EF006022AB00FEFF3A00D1
:102990006002AB00FCFF32004013800080407800F2
:1029A000F8EEB7006822EF006022AB00FEFF3A00AD
:1029B0006002AB00FCFF3200421380004811DD00D2
:1029C0006822EF006022AB00FEFF3A006002AB001D
:1029D000FCFF3200401380000080FB00020070000A
:1029E000B0778800D5A2A800F1CF400001003200E6
:1029F000FFFF370040C0B30093FF37000400FA0028
:102A0000E0BF9F00F1BF9F00D5A2A90030002000C9
:102A1000401388006022AB00FEFF3A006002AB006A
:102A2000FCFF3200401380006FF897000080FB002D
:102A3000401388006022AB00FEFF3A006002AB004A
:102A4000FCFF3200401380005FF897000080FB001D
:102A5000401388006022AB00FEFF3A006002AB002A
:102A6000FCFF320040138000CFF897000180FB008C
:102A7000401388006022AB00FEFF3A006002AB000A
:102A8000FCFF320040138000F4EEB700E08F5100ED
:102A90000E0032008300E9008001EB004313880040
:102AA0006022AB00FEFF3A006002AB00FCFF320088
:102AB0004013800000497800E08F5000030032008E
:102AC0000201E8008100E900F4FF3700D5A2A80068
:102AD0000080FA0000000600D0778800E1778800C7
:102AE00077FF3700889FBE008A1F78008004780037
:102AF00001047800F8CEBF00F14F400041003A00D9
:102B0000E00F54003F003200FA0F200060C0B30015
:102B10004DFF0700D5A2A900200020004013880027
:102B20006022AB00FEFF3A006002AB00FCFF320007
:102B300040138000A1EF2000214090000080FB00A6
:102B4000401388006022AB00FEFF3A006002AB0039
:102B5000FCFF320040138000114090000080FB0019
:102B6000401388006022AB00FEFF3A006002AB0019
:102B7000FCFF320040138000914078000180FB0090
:102B8000401388006022AB00FEFF3A006002AB00F9
:102B9000FCFF320040138000994078000180FB0068
:102BA000401388006022AB00FEFF3A006002AB00D9
:102BB000FCFF320040138000F4EEB700D0778000B5
:102BC000E177800061014000E0814800D277880011
:102BD000E37788000804E900040032008904E80073
:102BE00002016500ECFF3A0003003700D5A2A800FF
:102BF0001FFF070003003700D5A2A8001CFF070035
:102C0000C2FF37004F0578004F04BE0000000600E9
:102C10000400FA00E0BF9F00F1BF9F0028FF0700FB
:102C200060C0B30008FF0700D5A2A9000002200081
:102C3000401388006022AB00FEFF3A006002AB0048
:102C4000FCFF3200401380006FF897000080FB000B
:102C5000401388006022AB00FEFF3A006002AB0028
:102C6000FCFF3200401380005FF897000080FB00FB
:102C7000401388006022AB00FEFF3A006002AB0008
:102C8000FCFF320040138000CFF897000180FB006A
:102C9000401388006022AB00FEFF3A006002AB00E8
:102CA000FCFF320040138000F4EEB700D5A2A8006C
:102CB000EFFE07000080FA00000006009076880012
:102CC000D06EEF0000000500000005000200FA00D1
:102CD000D5E2A90033002000431388006022AB0036
:102CE000FEFF3A006002AB00FCFF3200431380009D
:102CF000E3FF9F00C801DE00431388006022AB00A1
:102D0000FEFF3A006002AB00FCFF3200431380007C
:102D1000E3FF9F000080FB00401388006022AB00AF
:102D2000FEFF3A006002AB00FCFF3200401380005F
:102D3000E0FF9F000002EB000C0037004413880006
:102D40006022AB00FEFF3A006002AB00FCFF3200E5
:102D500040138000E0FF9F00E08F5000020032002F
:102D60006FF8970080587800030178008201E9002D
:102D7000E00F5100F1FF3A00D5E2A8000000EB009F
:102D80000080FA0000000600881F7800D0CEBF0047
:102D900009003A00987680000202200041ED2000F0
:102DA00008007800C9FF07000802B0009876880084
:102DB00000C2B300D0EEB70001ED200091407800D2
:102DC0000180FB00020220000000510042ED2000C3
:102DD000624078008140E9008000FD00D0EEB7003D
:102DE0008000FD004F04780000000600D06EEF0068
:102DF00090768800000005000200FA00D5E2A900E4
:102E000050002000401388006022AB00FEFF3A0013
:102E10006002AB00FCFF320040138000E0FF9F0027
:102E20006822EF006022AB00FEFF3A006002AB00B8
:102E3000FCFF320040138000E0FF9F00D5E2A800B5
:102E4000FFB89700618060000080FA000000060073
:102E50000200FA00D5E2A9006000200040138800BB
:102E60006022AB00FEFF3A006002AB00FCFF3200C4
:102E700040138000E0FF9F00D5E2A800D5E2A90042
:102E800020002000401388006022AB00FEFF3A00C3
:102E90006002AB00FCFF320040138000E0FF9F00A7
:102EA000D3CEBF000080FB00401388006022AB003F
:102EB000FEFF3A006002AB00FCFF320040138000CE
:102EC000E0FF9F00D2CEBF000080FB0040138800CF
:102ED0006022AB00FEFF3A006002AB00FCFF320054
:102EE00040138000E0FF9F0002ED200012417800B7
:102EF000E04F51000F0032008040EB000180FB00EA
:102F000043ED2000634078000080FB004013880000
:102F10006022AB00FEFF3A006002AB00FCFF320013
:102F200040138000E0FF9F008140E80082CF500006
:102F3000F2FF3900D5E2A8000280FB00D22EB400D7
:102F4000D06EEF00ACFF0700E00F5000FDFF3A002D
:102F50000080FA0000000600D0CEBF000100320061
:102F6000BBFF07000000050001ED20009140780044
:102F70000181FB0043ED2000807179000140E800F1
:102F8000D0EEB700FF4F500002003600B0FF070040
:102F900004003700D20EB4007F00600001003A0048
:102FA000ABFF070000000500889FBE00800478008A
:102FB000E08F5000080032000104E90001003700F2
:102FC0000004780039407800E7FF07000800E900B6
:102FD000E00F5400FAFF3A00DFFF07004F04BE0085
:102FE00000000600F0CDBF007F406000E14F5000C0
:102FF0004D003A00F4CDBF004B003A00F1CDBF00C8
:10300000E64F500018003A00F3CDBF0011C2B300E4
:10301000814F5000040032008140E800814F500091
:1030200011003A000A003700C8CDBF00E14F500040
:103030000D003A00C04F2800E06D8800900020008D
:10304000006E880000CCB300BEEDB700060037006C
:10305000A0562800E06D8800D0012000006E880096
:1030600000CCB300BEEDB70001DF20009140780036
:103070000146B20000C2B30080CF50002A003A00DF
:10308000F1CDBF000080FB00010020006200500075
:10309000E0805800E90F5000E08F580022003E0009
:1030A0000060010009003700140037001E003700DF
:1030B0001D0037001C0037001B0037001A003700C6
:1030C00019003700080037001300370020F02000F7
:1030D000E06D880010002000006E880010CCB30066
:1030E000BEEDB7000000060000C8B300BEEDB7009B
:1030F000F3CDBF0002EFB7000000060030F0200063
:10310000E06D880010002000006E880010C8B30039
:10311000BEEDB7000000060000C8B300BEEDB7006A
:10312000F2CDBF0003EFB70000000600FE0E000066
:103130000400000082000000000000000000000009
:10314000100E0000C0000000800000000008000019
:10315000B605000080000000D00E00002400000032
:1031600080000000F40E00000A0000008000000053
:10317000B60D00004A00000080000000000E0000B4
:103180001000000080000000020F0000020000009C
:1031900080000000000000000040DA000000FE0097
:103800000004040000000000CC18040000000000C8
:10381000CC18040000000000CC18040000000000D8
:10382000CC18040000000000CC18040000000000C8
:10383000CC18040000000000CC18040000000000B8
:10384000CC18040000000000CC18040000000000A8
:10385000CC18040000000000CC1804000000000098
:10386000CC18040000000000CC1804000000000088
:10387000CC18040000000000CC1804000000000078
:10388000CC18040000000000CC1804000000000068
:10389000CC18040000000000CC1804000000000058
:1038A000CC18040000000000CC1804000000000048
:1038B000CC18040000000000CC1804000000000038
:1038C000CC18040000000000CC1804000000000028
:1038D000CC18040000000000CC1804000000000018
:1038E000CC18040000000000CC1804000000000008
:1038F000CC18040000000000CC18040000000000F8
:10390000CC18040000000000CC18040000000000E7
:10391000CC18040000000000CC18040000000000D7
:10392000CC18040000000000CC18040000000000C7
:10393000CC18040000000000CC18040000000000B7
:10394000CC18040000000000CC18040000000000A7
:10395000CC18040000000000CC1804000000000097
:10396000CC18040000000000CC1804000000000087
:10397000CC18040000000000CC1804000000000077
:10398000CC18040000000000CC1804000000000067
:10399000CC18040000000000CC1804000000000057
:1039A000CC18040000000000CC1804000000000047
:1039B000CC18040000000000CC1804000000000037
:1039C000CC18040000000000CC1804000000000027
:1039D000CC18040000000000CC1804000000000017
:1039E000CC18040000000000CC1804000000000007
:1039F000CC18040000000000CC18040000000000F7
:103A0000CC18040000000000CC18040000000000E6
:103A1000CC18040000000000CC18040000000000D6
:020000040005F5
:0C57F400FF7C00008C0B00006F3E0000EA
:00000001FF
